:100000000C946D020C948A020C948A020C948A025D
:100010000C948A020C948A020C948A020C948A0230
:100020000C948A020C948A020C94D3050C940D064D
:100030000C948A020C948A020C948A020C948A0210
:100040000C948A020C948A020C948A020C948A0200
:100050000C948A020C948A020C948A020C948A02F0
:100060000C948A020C94DF070C94B4070C948A0257
:100070000C948A020C948A020C948A020C948A02D0
:100080000C948A020C948A020C948A020C948A02C0
:100090000C948A020C948A020C948A020C948A02B0
:1000A0000C948A020C948A020C948A0274057005DE
:1000B0006C056805640560055C0558055405500528
:1000C0004C054805440540053C0538053405300518
:1000D0002C052805240520051C0518051405100508
:1000E0000C05080504050005FC04F804F404F004FC
:1000F000EC04E804E404E004DC04D804D404D004F0
:10010000CC04C804C404C004BC04B804B404B004DF
:10011000AC04A804A404A0049C04980494049004CF
:100120008C048804840480047C04780474046E6164
:100130006E00696E660000407A10F35A00A0724E9D
:1001400018090010A5D4E80000E87648170000E47C
:100150000B54020000CA9A3B000000E1F5050000C4
:1001600080969800000040420F000000A086010029
:100170000000102700000000E803000000006400F9
:10018000000000000A000000000001000000000064
:100190002C76D888DC674F0823DFC1DFAE59E1B188
:1001A000B796E5E3E453C63AE651997696E8E6C297
:1001B0008426EB898C9B62ED407C6FFCEFBC9C9F9E
:1001C00040F2BAA56FA5F490055A2AF75C936B6CC0
:1001D000F9676DC11BFCE0E40D47FEF520E6B500B4
:1001E000D0ED902E0300943577050080841E080022
:1001F00000204E0A000000C80C333333330F986ED2
:1002000012831141EF8D2114893BE65516CFFEE68E
:10021000DB18D1844B381BF77C1D901DA4BBE42454
:10022000203284725E228100C9F124ECA1E53D27D1
:1002300000010000DD0212000200009A02430003E8
:100240000000960204010309048002140203090459
:10025000680216030309045A020C0C033100320031
:1002600033003400350000001603550053004200EF
:100270002000530065007200690061006C000000FE
:10028000140359006F007500720020004E006100D9
:100290006D00650000000403090409024300020127
:1002A00000C0320904000001020201000524001010
:1002B00001052401010104240206052406000107AA
:1002C00005820310004009040100020A0000000733
:1002D00005030240000007058402400000120100EF
:1002E0000202000010C0167A04000101020301009E
:1002F00001C11201803601813600000000000000BB
:100300005F00000007000700147F147F14242A7F79
:100310002A1223130864623649552250000503004F
:1003200000001C2241000041221C0014083E081459
:1003300008083E08080050300000080808080800B7
:100340006060000020100804023E5149453E004212
:100350007F400042615149462141454B31181412FA
:100360007F1027454545393C4A4949300171090507
:10037000033649494936064949291E0036360000E8
:1003800000563600000814224100141414141400FE
:10039000412214080201510906324979413E7E1179
:1003A00011117E7F494949363E414141227F4141F9
:1003B000221C7F494949417F090909013E414949B8
:1003C0007A7F0808087F00417F41002040413F01BB
:1003D0007F081422417F404040407F020C027F7F13
:1003E0000408107F3E4141413E7F090909063E4114
:1003F00051215E7F09192946464949493101017F4A
:1004000001013F4040403F1F2040201F3F403840F7
:100410003F63140814630708700807615149454396
:10042000007F41410002040810200041417F000488
:1004300002010204404040404000010204002054F8
:100440005454787F48444438384444442038444421
:10045000487F3854545418087E0901020C525252F5
:100460003E7F0804047800447D40002040443D0065
:100470007F1028440000417F40007C041804787CF1
:100480000804047838444444387C141414080814CC
:1004900014187C7C080404084854545420043F4435
:1004A00040203C4040207C1C2040201C3C403040F0
:1004B0003C44281028440C5050503C4464544C4454
:1004C000000836410000007F00000041360800109F
:1004D0000808100878464146780011241FBECFEF67
:1004E000DAE0DEBFCDBF11E0A0E0B1E0EAEEF3E27A
:1004F00002C005900D92A033B107D9F723E0A0E325
:10050000B1E001C01D92A83EB207E1F70E942103AD
:100510000C94F3110C940000E1E6F0E080E8808395
:1005200081E080830E9456030E9406088FE30E94A8
:100530007F0A83E08093BF008FEF8093D10082E831
:100540008093C0003F9A87E08093C1001092C3005F
:10055000229A239A08959093BF008093CF0025B1EB
:10056000422F4B7F9C01220F331F220F331F242B5E
:1005700025B925B1277F63E0880F991F6A95E1F7B8
:10058000822B85B90895CF93DF93CDB7DEB79E0157
:10059000215F3F4F4D855E856B857C8589859A857A
:1005A0000E94691121E049855A856F8178858D8186
:1005B0009E810E943C0ADF91CF910895CF93DF93F3
:1005C00080E00E940A08EC018FEF93E08C1B9D0BEA
:1005D0000E94AB020E94330821E047E051E060E056
:1005E00070E080E090E00E943C0A21E049E151E0A7
:1005F0006AE070E080E090E00E943C0ACE011F9229
:100600001F929F93CF9388E291E09F938F931F92C5
:1006100080E58F9380EA91E09F938F931F9284E10E
:100620008F931F921F920E94C3028DB79EB70E96A2
:100630000FB6F8949EBF0FBE8DBFDF91CF910C9483
:1006400020080E948C020E94DE022FE788E391E0DE
:10065000215080409040E1F700C00000F4CF0F939C
:100660001F93CF93DF93CDB7DEB70F8118859E011F
:10067000235F3F4F4B855C8569857A85C8010E9461
:100680006911F80101900020E9F73197BF01601B63
:10069000710BC8010E942104DF91CF911F910F912E
:1006A00008958091E80080FFFCCF089581E0809359
:1006B000D70080EA8093D80082E189BD09B400FEAA
:1006C000FDCF80E98093D8001092E00010923301B2
:1006D000109230018CE08093E2007894089580912C
:1006E000330108959FB7F89480913301882369F00E
:1006F00083E08093E9002BE68091E80085FD09C046
:1007000082FF03C02093E800F7CF9FBF8FEF9FEFDA
:1007100008958091F1002091E80025FD03C02BE6AB
:100720002093E8009FBF90E008952FB7F894809140
:100730003301811102C080E010C083E08093E900A2
:100740008091F200811109C09091E80092FFF3CFEF
:1007500095FDF1CF9BE69093E8002FBF089580911F
:100760003301882371F08FB7F89493E09093E900F8
:100770002BE69091E80095FF03C02093E800F9CFA5
:100780008FBF089590913301992371F09FB7F8942A
:1007900024E02093E90020913101222349F02091A7
:1007A000E80025FD03C09FBF8FEF0895109231012F
:1007B0002091E400275E34E04091E80045FD12C03E
:1007C0009FBF9091E400291304C081E08093310120
:1007D000EBCF90913301992339F39FB7F89430937D
:1007E000E900EACF8093F1008091E80085FD03C025
:1007F0008AE38093E80085E0809332019FBF80E028
:100800000895909133019923D1F09FB7F89424E093
:100810002093E9002091E80025FD02C09FBF0FC092
:100820008093F1008091E80085FD03C08AE3809306
:10083000E80085E0809332019FBF80E008958FEF4C
:1008400008950F931F93CF93DF93DC01CB01209189
:100850003301222371F02FB7F89434E03093E9008C
:1008600030913101332349F03091E80035FD03C068
:100870002FBF8FEF43C110923101C4E0D0E41AE3DF
:1008800005E0009709F439C13091E400375E4091EA
:10089000E80045FD12C02FBF2091E400321304C0D0
:1008A00081E080933101E5CF20913301222309F3C8
:1008B0002FB7F894C093E900EACF3091F200ED2F02
:1008C000E31B4E2F50E08417950708F4E82F8E1B8A
:1008D00091094E2F50E04134510508F001C1FA0151
:1008E000EA5AFF4F0C9402103C913093F10011969C
:1008F0003C913093F10011963C913093F1001196A8
:100900003C913093F10011963C913093F100119697
:100910003C913093F10011963C913093F100119687
:100920003C913093F10011963C913093F100119677
:100930003C913093F10011963C913093F100119667
:100940003C913093F10011963C913093F100119657
:100950003C913093F10011963C913093F100119647
:100960003C913093F10011963C913093F100119637
:100970003C913093F10011963C913093F100119627
:100980003C913093F10011963C913093F100119617
:100990003C913093F10011963C913093F100119607
:1009A0003C913093F10011963C913093F1001196F7
:1009B0003C913093F10011963C913093F1001196E7
:1009C0003C913093F10011963C913093F1001196D7
:1009D0003C913093F10011963C913093F1001196C7
:1009E0003C913093F10011963C913093F1001196B7
:1009F0003C913093F10011963C913093F1001196A7
:100A00003C913093F10011963C913093F100119696
:100A10003C913093F10011963C913093F100119686
:100A20003C913093F10011963C913093F100119676
:100A30003C913093F10011963C913093F100119666
:100A40003C913093F10011963C913093F100119656
:100A50003C913093F10011963C913093F100119646
:100A60003C913093F10011963C913093F100119636
:100A70003C913093F10011963C913093F100119626
:100A80003C913093F10011963C913093F100119616
:100A90003C913093F10011963C913093F100119606
:100AA0003C913093F10011963C913093F1001196F6
:100AB0003C913093F10011963C913093F1001196E6
:100AC0003C913093F10011963C913093F1001196D6
:100AD0003C913093F10011963C913093F1001196C6
:100AE0003C913093F10011963091E80035FF10935E
:100AF000E800009332012FBFC4CE80E0DF91CF9198
:100B00001F910F9108958FB7F89490913201992316
:100B100041F094E09093E9009AE39093E8001092FA
:100B200032018FBF089560910001709101018091A1
:100B3000020190910301089580910401089580912C
:100B4000050108958091060108958091300108956E
:100B50009FB7F89420913301222339F022E02093AB
:100B6000E9002091E80025FD03C09FBF8FEF0895A5
:100B700021EA2093F10020E22093F1001092F1008D
:100B80001092F1001092F1001092F10021E02093F8
:100B9000F1001092F1008093F1008AE38093E80065
:100BA0009FBF80E008951F920F920FB60F921124FD
:100BB0008F939F938091E1001092E10083FF11C019
:100BC0001092E90091E09093EB001092EC0092E11A
:100BD0009093ED0098E09093F00010923301109202
:100BE000300182FF13C080913301882379F0809116
:100BF0003201882359F0815080933201811106C05F
:100C000084E08093E9008AE38093E8009F918F91CC
:100C10000F900FBE0F901F9018951F920F920FB656
:100C20000F921124FF920F931F932F933F934F9393
:100C30005F936F937F938F939F93AF93BF93CF9364
:100C4000DF93EF93FF931092E9008091E80083FF18
:100C500017C1F090F1008091F1000091F1009091A6
:100C6000F10010E0192BC091F1009091F100D0E05B
:100C7000D92B2091F1006091F10092EF9093E80060
:100C8000863009F049C080E392E04AE552E0FC0179
:100C9000A591B4910A171B07D9F4FC013296A591CE
:100CA000B491CA17DB07A1F4FC0134964591549125
:100CB000FC013696849130E0362B2F3F310519F038
:100CC00010F02FEF30E0281708F4822F3EEF0CC011
:100CD000079648175907D9F6D3C0490F511D891BEC
:100CE0003093E8008823A9F09091E800292F25701F
:100CF000D9F392FDC8C0982F813108F090E1FA0134
:100D0000292F222351F364916093F10021503196F1
:100D1000F8CF903149F3B7C0853049F48EEF809316
:100D2000E8000E94510300680093E300ACC08930E2
:100D300059F5F110A5C000933301109230011092C3
:100D400032018EEF8093E80041E08FEE92E0409315
:100D5000E9009C012F5F3F4FFC0154915093EB0041
:100D6000552359F0F90124912093EC009C012D5F4B
:100D70003F4F3196E491E093ED004F5F453011F025
:100D8000C901E5CF8EE177C0883051F4F0E8FF1259
:100D900077C00E945103809133018093F10049C0D4
:100DA000813281F481EAF8126BC00E945103E0E0C5
:100DB000F1E087E091E021912093F1008E179F07E9
:100DC000D1F737C08032A9F491E2F91259C080916D
:100DD000E80082FFFCCFE0E0F1E087E091E02091C5
:100DE000F10021938E179F07D1F78BEF8093E800D6
:100DF00020C0823241F4E1E2FE1242C00093300191
:100E00000E94510316C0811118C00E945103F2E8DC
:100E1000FF120AC0C093E9008091EB0085FB882790
:100E200080F91092E90001C080E08093F1001092F7
:100E3000F1008EEF8093E80026C0982F9D7F9130BF
:100E4000F9F492E0F9121CC0012BD1F4CF779FEF97
:100E50009C0F9430A8F49EEF9093E800C093E900B3
:100E6000833071F089E18093EB0081E090E001C074
:100E7000880FCA95EAF78093EA001092EA0003C04F
:100E800081E28093EB00FF91EF91DF91CF91BF91D1
:100E9000AF919F918F917F916F915F914F913F9112
:100EA0002F911F910F91FF900F900FBE0F901F90E9
:100EB00018959B01AC01F89460E079E08DE390E037
:100EC0000E94E00FDA01C9010197A109B109B695A5
:100ED000A795979587959093CD008093CC0082E05D
:100EE0008093C80088E98093C90086E08093CA0097
:100EF0001092760110927701109234011092350110
:100F000078940895909177019F5F983208F090E06F
:100F1000209176019217E1F3E92FF0E0E858FE4FB7
:100F200080839093770188EB8093C9000895909116
:100F30003501809134019817D1F3909134019F5F6E
:100F4000903408F090E0E92FF0E0EA5CFE4F8081F9
:100F5000909334010895809135019091340189175F
:100F600008F4805C891B08951F920F920FB60F92B0
:100F700011248F939F93EF93FF939091770180912A
:100F80007601981304C088E98093C9000FC080914E
:100F900076018F5F883208F080E0E82FF0E0E858B3
:100FA000FE4F90819093CE0080937601FF91EF9158
:100FB0009F918F910F900FBE0F901F9018951F92C9
:100FC0000F920FB60F9211242F938F939F93EF934D
:100FD000FF939091CE00809135018F5F803408F0AF
:100FE00080E020913401821739F0E82FF0E0EA5CCC
:100FF000FE4F908380933501FF91EF919F918F91E8
:101000002F910F900FBE0F901F90189587E8809337
:101010007A000895982F9F71906490937C0080725D
:1010200080937B0080917A00806480937A00809125
:101030007A0086FDFCCF8091780090917900089528
:10104000CF93DF9360E080E00E94BC0AC0EFD1E064
:10105000699181E00E94610A83E0C83ED807C1F728
:10106000DF91CF910895E0EFF1E0119283E0E83E47
:10107000F807D9F7089584359105A8F5603371050F
:1010800090F59B0173E0359527957A95E1F76770A8
:10109000452BA1F044E5429FF001439FF00D112440
:1010A0008E0F9F1FFC01E051FE4F81E090E001C0D8
:1010B000880F6A95EAF79081892B14C044E5429F16
:1010C000F001439FF00D11248E0F9F1FFC01E05192
:1010D000FE4F81E090E001C0880F6A95EAF78095A5
:1010E00090818923808308952F923F924F925F923F
:1010F0006F927F928F929F92AF92BF92CF92DF9228
:10110000EF92FF920F931F93CF93DF93CDB7DEB78C
:101110002E970FB6F894DEBF0FBECDBF1C013B016A
:101120002A013A8329838417950771F57C836B83A1
:1011300029813A81621673069CF48B819C81281761
:1011400039070CF41AC1A8016B817C81C1010E948E
:101150003B082B813C812F5F3F4F3C832B83E8CFA3
:10116000AB81BC8129813A81A217B3070CF405C178
:10117000A8016B817C81C1010E943B088B819C810D
:1011800001979C838B83D4CF89819A8168177907D3
:1011900051F53A822982241435049CF4A981BA813C
:1011A0004A165B060CF4E9C0A801B30189819A8153
:1011B0000E943B0829813A812F5F3F4F3A83298360
:1011C000EACF29813A81241535050CF4D6C0A8014F
:1011D000B30189819A810E943B08A981BA81119744
:1011E000BA83A983D8CF4215530554F4872D69805B
:1011F0007A8069838A83922D832D1A01492E582E75
:10120000B20162197309072E000C880B990B0E941A
:101210002B0F6F83788789879A8769817A8166190E
:101220007709072E000C880B990B0E942B0F4B019E
:101230005C012F81388549855A850E94B70E6B83E2
:101240007C838D839E8320E030E0A9010E94DB0F28
:1012500087FF09C08B819C81AD81BE81B0588B8393
:101260009C83AD83BE83C12CD12C760120E030E07D
:10127000A9016F81788589859A850E94DB0F1816F0
:101280000CF077C0421453040CF477C0A801B301EA
:10129000C1010E943B082B813C814D815E81C701C9
:1012A000B6010E94460E6B017C0120E030E040E078
:1012B0005FE30E94DB0F87FF10C020E030E0A90150
:1012C0006F81788589859A850E94DB0F18160CF04E
:1012D0004CC09FEF291A390AC9CF20E030E0A9019C
:1012E000C501B4010E94DB0F1816CCF529813A81A3
:1012F0002615370514F3A801B301C1010E943B086C
:10130000A1E0B0E0BC87AB8720E030E0A901C501D7
:10131000B4010E94DB0F181614F01C861B8621E016
:1013200030E03E872D8720E030E0A901C501B401FF
:101330000E94B20E87FD02C01E861D868B859C858D
:10134000AD85BE858A1B9B0B680E791E20E030E0C0
:1013500040E85FE3C701B6010E94450EA4CF898132
:101360009A81681679063CF6A8CFA1E02A1A3108BE
:101370007DCF241435040CF089CF2E960FB6F89447
:10138000DEBF0FBECDBFDF91CF911F910F91FF90B8
:10139000EF90DF90CF90BF90AF909F908F907F9015
:1013A0006F905F904F903F902F9008952F923F92B3
:1013B0004F925F926F927F928F929F92AF92BF9265
:1013C000CF92DF92EF92FF920F931F93CF93DF9311
:1013D0006C014B01190185E0489F20011124E12C8B
:1013E000F12C80EA481A510866246394712CF201AA
:1013F000EE0DFF1DE750FD4FE4912114310409F477
:10140000E09500E010E0CE2FD0E05601AE0CBF1CFE
:10141000A301002E02C0440F551F0A94E2F74C238B
:101420005D23002E02C0559547950A94E2F7B4015A
:10143000600F711FC5010E943B080F5F1F4F0830EE
:10144000110531F78FEFE81AF80A85E0E816F10484
:1014500071F6DF91CF911F910F91FF90EF90DF9088
:10146000CF90BF90AF909F908F907F906F905F9044
:101470004F903F902F900895CF92DF92EF92FF927E
:101480000F931F93CF93DF937B018A016901D82FBC
:10149000C0E0F801EC0FF11D4081442349F09601B2
:1014A000B7018D2F90E00E94D609DB5FCF5FF1CFAF
:1014B000DF91CF911F910F91FF90EF90DF90CF9030
:1014C000089525B12F7D30E2839FC0011124822B26
:1014D00085B95F9887E090E070E08F989B01082EB7
:1014E00002C0359527950A94E2F720FF02C02E9A94
:1014F00001C02E988F9A019780F75F9A0895CF9335
:10150000C82F579A249A259A269A879A2C985F9AD8
:101510002C9A61E280E00E94610A6C2F606880E092
:101520000E94610A64E080E00E94610A63E180E059
:101530000E94610A6CE080E00E94610A60E280E043
:101540000E94610A6CE080E00E94610A60E480E031
:101550000E94610A60E880E0CF910C94610ACF9309
:10156000DF93C8EFD1E060E081E00E94610A21973B
:10157000D1F7DF91CF910895CF93C82F606480E0B9
:101580000E94610A6C2F606880E0CF910C94610A20
:10159000A0E1B0E0EEECFAE00C9408107C011B0135
:1015A0006A01FC0117821682838181FF44C39E0178
:1015B0002F5F3F4F3901F7019381F10193FD859131
:1015C00093FF81911F01882309F431C3853239F4D7
:1015D00093FD859193FF81911F01853239F4B70105
:1015E00090E00E942D1156016501E5CF10E0512CCD
:1015F000912CFFE1F915D8F08B3279F038F4803274
:1016000079F08332A1F4F92DF0612EC08D3261F0B2
:10161000803369F4292D21602DC0392D3260932E3D
:10162000892D8460982E2AC0E92DE86015C097FCAA
:101630002DC020ED280F2A3088F496FE06C03AE02F
:10164000139F200D1124122F19C08AE0589E200DDF
:101650001124522EE92DE0629E2E10C08E3231F4FC
:1016600096FCE5C2F92DF0649F2E08C08C3621F45B
:10167000292D2068922E02C0883641F4F10193FD95
:10168000859193FF81911F018111B3CF9BEB980F3F
:10169000933020F4992D9061805E07C09BE9980FEC
:1016A000933008F066C1992D9F7E96FF16E09F73D8
:1016B000992E853619F49064992E08C0863621F447
:1016C000392F3068932E02C01111115097FE07C0B8
:1016D0001C3350F444244394410E27E00BC01830CF
:1016E00038F027E017E005C027E09CE3492E02C050
:1016F000212F412C560184E0A80EB11CF601608117
:10170000718182819381042DA3010E943F106C019D
:10171000F981FC87F0FF02C0F3FF06C091FC06C010
:1017200092FE06C000E205C00DE203C00BE201C05C
:1017300000E08C858C7019F001115AC29BC297FE93
:1017400010C04C0CFC85F4FF04C08A81813309F47D
:101750004A94141474F528E0241578F588E0482E8E
:101760002CC096FC2AC0812F90E08C159D059CF022
:101770003CEFC3163FEFD30674F0892D8068982E96
:101780000AC0E2E0F0E0EC0FFD1FE10FF11D8081E7
:10179000803319F411501111F4CF97FE0EC0442478
:1017A0004394410E812F90E0C816D9062CF41C19E1
:1017B00004C04424439401C010E097FE06C01C14EA
:1017C0001D0434F4C601019605C085E090E002C016
:1017D00081E090E001110196112331F0212F30E0DA
:1017E0002F5F3F4F820F931F252D30E08217930705
:1017F00014F4581A01C0512C892D897049F45520D0
:1018000039F0B70180E290E00E942D115A94F7CF91
:10181000002329F0B701802F90E00E942D1193FC46
:1018200009C0552039F0B70180E390E00E942D11E6
:101830005A94F7CF97FE4CC04601D7FE02C0812CC8
:10184000912CC60188199909F301E80FF91FFE8749
:10185000ED87960124193109388B2F87012F10E06D
:101860001195019511093FEF8316930629F4B701ED
:101870008EE290E00E942D11C814D9044CF08F859F
:1018800098898815990524F4ED85FE85818101C02C
:1018900080E3F1E08F1A91082D853E852F5F3F4F41
:1018A0003E872D87801691062CF0B70190E00E94AC
:1018B0002D11D9CFC814D90441F49A81963320F45C
:1018C000953319F43C8534FF81E3B70190E04EC0B5
:1018D0008A81813319F09C859F7E9C87B70190E0B7
:1018E0000E942D11111105C094FC18C085E690E0EE
:1018F00017C0B7018EE290E00E942D111E5F82E0BA
:1019000001E0080FF301E80FF11D8081B70190E0BD
:101910000E942D11802F0113F3CFE6CF85E490E0D4
:10192000B7010E942D11D7FC06C0C114D10441F4A7
:10193000EC85E4FF05C0D194C194D1088DE201C0CB
:101940008BE2B70190E00E942D1180E32AE0C216DD
:10195000D1042CF08F5FFAE0CF1AD108F7CFB7018E
:1019600090E00E942D11B701C601C0960E942D1172
:1019700054C1833631F0833779F0833509F056C08E
:1019800020C0560132E0A30EB11CF601808189838C
:1019900001E010E0630112C05601F2E0AF0EB11C8D
:1019A000F601C080D18096FE03C0612F70E002C0B6
:1019B0006FEF7FEFC6010E9422118C01F92DFF7796
:1019C00014C0560122E0A20EB11CF601C080D180E5
:1019D00096FE03C0612F70E002C06FEF7FEFC6017B
:1019E0000E9417118C01F92DF0689F2EF3FD1AC08B
:1019F000852D90E008171907A8F4B70180E290E060
:101A00000E942D115A94F4CFF60197FC859197FE10
:101A100081916F01B70190E00E942D1151105A94ED
:101A2000015011090115110579F7F7C0843611F03D
:101A3000893661F5560197FE09C024E0A20EB11C5B
:101A4000F60160817181828193810AC0F2E0AF0E5C
:101A5000B11CF60160817181072E000C880B990B77
:101A6000F92DFF769F2E97FF09C090958095709570
:101A700061957F4F8F4F9F4FF0689F2E2AE030E097
:101A8000A3010E949511C82EC6183FC0092D8537A5
:101A900021F40F7E2AE030E01DC0097F8F3691F0DF
:101AA00018F4883559F0C3C0803719F0883711F021
:101AB000BEC0006104FF09C0046007C094FE08C0F6
:101AC000066006C028E030E005C020E130E002C03A
:101AD00020E132E0560107FF09C084E0A80EB11CE6
:101AE000F601608171818281938108C0F2E0AF0EBE
:101AF000B11CF6016081718180E090E0A3010E9439
:101B00009511C82EC6180F77902E96FE0BC0092D82
:101B10000E7FC11650F494FE0AC092FC08C0092D35
:101B20000E7E05C0DC2C092D03C0DC2C01C0D12E9B
:101B300004FF0DC0FE01EC0DF11D8081803311F416
:101B4000097E09C002FF06C0D394D39404C0802F3D
:101B5000867809F0D39403FD11C000FF06C01C2D48
:101B6000D51480F4150D1D190DC0D51458F4B70106
:101B700080E290E00E942D11D394F7CFD51410F499
:101B80005D1801C0512C04FF10C0B70180E390E044
:101B90000E942D1102FF17C001FD03C088E790E0ED
:101BA00002C088E590E0B7010CC0802F867859F01C
:101BB00001FF02C08BE201C080E207FD8DE2B701A8
:101BC00090E00E942D11C11638F4B70180E390E037
:101BD0000E942D111150F7CFCA94F301EC0DF11DA5
:101BE0008081B70190E00E942D11C110F5CF15C082
:101BF000F4E0F51560F584E0581A93FE1FC001115A
:101C000027C02C8523FF2AC00EE211E0392D307148
:101C1000932EF8018491811124C0552009F4E4CC5D
:101C2000B70180E290E00E942D115A94F6CFF7019F
:101C30008681978126C08FEF9FEF23C0B70180E296
:101C400090E00E942D115A945110F8CFD8CF512C0A
:101C5000B701802F90E00E942D11D3CF02E311E055
:101C6000D5CF91108052B70190E00E942D110F5FE7
:101C70001F4FCFCF23E0251510F483E0BDCF512CAB
:101C8000C0CF6096E2E10C9424105058BB27AA27DD
:101C90000E945D0E0C94A10F0E94930F38F00E94D9
:101CA0009A0F20F039F49F3F19F426F40C94900F0A
:101CB0000EF4E095E7FB0C948A0FE92F0E94B20F17
:101CC00058F3BA17620773078407950720F079F471
:101CD000A6F50C94D40F0EF4E0950B2EBA2FA02D80
:101CE0000B01B90190010C01CA01A0011124FF27C9
:101CF000591B99F0593F50F4503E68F11A16F040C4
:101D0000A22F232F342F4427585FF3CF46953795C2
:101D10002795A795F0405395C9F77EF41F16BA0B87
:101D2000620B730B840BBAF09150A1F0FF0FBB1F35
:101D3000661F771F881FC2F70EC0BA0F621F731F7E
:101D4000841F48F4879577956795B795F7959E3FDB
:101D500008F0B0CF9395880F08F09927EE0F97956C
:101D6000879508950E94660F08F481E008950E9407
:101D7000CB0E0C94A10F0E949A0F58F00E94930F63
:101D800040F029F45F3F29F00C948A0F51110C9414
:101D9000D50F0C94900F0E94B20F68F39923B1F302
:101DA000552391F3951B550BBB27AA276217730781
:101DB000840738F09F5F5F4F220F331F441FAA1F15
:101DC000A9F335D00E2E3AF0E0E832D091505040D1
:101DD000E695001CCAF72BD0FE2F29D0660F771F7F
:101DE000881FBB1F261737074807AB07B0E809F065
:101DF000BB0B802DBF01FF2793585F4F3AF09E3FEA
:101E0000510578F00C948A0F0C94D50F5F3FE4F3E2
:101E1000983ED4F3869577956795B795F7959F5F2C
:101E2000C9F7880F911D9695879597F90895E1E078
:101E3000660F771F881FBB1F621773078407BA07D7
:101E400020F0621B730B840BBA0BEE1F88F7E09532
:101E50000895E89409C097FB3EF49095809570959D
:101E600061957F4F8F4F9F4F9923A9F0F92F96E9E6
:101E7000BB279395F695879577956795B795F1115B
:101E8000F8CFFAF4BB0F11F460FF1BC06F5F7F4FF8
:101E90008F4F9F4F16C0882311F096E911C077230A
:101EA00021F09EE8872F762F05C0662371F096E813
:101EB000862F70E060E02AF09A95660F771F881FE2
:101EC000DAF7880F9695879597F90895990F000886
:101ED000550FAA0BE0E8FEEF16161706E807F907FC
:101EE000C0F012161306E407F50798F0621B730B97
:101EF000840B950B39F40A2661F0232B242B252B18
:101F000021F408950A2609F4A140A6958FEF811DBA
:101F1000811D089597F99F6780E870E060E008955B
:101F20009FEF80EC089500240A94161617061806F1
:101F30000906089500240A941216130614060506CD
:101F40000895092E0394000C11F4882352F0BB0F5E
:101F500040F4BF2B11F460FF04C06F5F7F4F8F4FC1
:101F60009F4F089557FD9058440F551F59F05F3FFC
:101F700071F04795880F97FB991F61F09F3F79F0AB
:101F800087950895121613061406551FF2CF46952D
:101F9000F1DF08C0161617061806991FF1CF8695AF
:101FA0007105610508940895E894BB276627772793
:101FB000CB0197F908950E94660F08F48FEF0895FA
:101FC000A1E21A2EAA1BBB1BFD010DC0AA1FBB1F3D
:101FD000EE1FFF1FA217B307E407F50720F0A21BAF
:101FE000B30BE40BF50B661F771F881F991F1A941C
:101FF00069F760957095809590959B01AC01BD0146
:10200000CF010895EE0FFF1F0590F491E02D099484
:102010002F923F924F925F926F927F928F929F92F8
:10202000AF92BF92CF92DF92EF92FF920F931F93E6
:10203000CF93DF93CDB7DEB7CA1BDB0B0FB6F89497
:10204000DEBF0FBECDBF09942A88398848885F84D7
:102050006E847D848C849B84AA84B984C884DF8048
:10206000EE80FD800C811B81AA81B981CE0FD11D2C
:102070000FB6F894DEBF0FBECDBFED010895283036
:1020800008F027E03327DA01990F311D87FD9160B1
:1020900000966105710539F432602E5F3D9330E39F
:1020A0002A95E1F708959F3F30F08038710561056A
:1020B00009F03C5F3C5F3D93913008F08068911DD2
:1020C000DF93CF931F930F93FF92EF92192F987F77
:1020D0009695E92F96959695E90FFF27E057FE4FC5
:1020E00099273327EE24FF24A701E70105900894E0
:1020F000079428F4360FE71EF81E491F511D660F7E
:10210000771F881F991F0694A1F70590079428F45C
:10211000E70EF81E491F561FC11D770F881F991F14
:10212000661F0694A1F70590079428F4F80E491F3E
:10213000561FC71FD11D880F991F661F771F069452
:10214000A1F70590079420F4490F561FC71FD81F09
:10215000990F661F771F881F0694A9F78491109521
:10216000177041F0D695C79557954795F794E79422
:102170001A95C1F7E6E3F1E0689415901591359151
:102180006591959105907FE27395E118F10A430BF3
:10219000560BC90BD009C0F7E10CF11E431F561FA7
:1021A000C91FD01D7EF4703311F48A95E6CFE894F0
:1021B000015030F0080F0AF40027021708F4202F0E
:1021C0002395022F7A3328F079E37D932A95E9F756
:1021D00010C07D932A9589F6069497956795379553
:1021E00017951794E118F10A430B560BC90BD00948
:1021F00098F023957E9173957A3308F070E37C9381
:102200002013B8F77E9170617D9330F0839571E370
:102210007D9370E32A95E1F71124EF90FF900F91E1
:102220001F91CF91DF91992787FD90950895FC012B
:102230000590615070400110D8F7809590958E0FF1
:102240009F1F0895FC016150704001900110D8F764
:10225000809590958E0F9F1F08950F931F93CF9396
:10226000DF93FB01238121FD03C08FEF9FEF2CC083
:1022700022FF16C0468157812481358142175307BA
:1022800044F4A081B1819D012F5F3F4F31832083B2
:102290008C93268137812F5F3F4F3783268314C06D
:1022A0008B01EC01FB010084F185E02D0995892B60
:1022B000E1F6D80116968D919C9117970196179685
:1022C0009C938E931697CE01DF91CF911F910F9122
:1022D0000895AEE0B0E0EFE6F1E10C9416108C0149
:1022E000FA0186E08C831A83098377FF02C060E0DD
:1022F00070E8CB0101979E838D83A901BF01CE01B8
:1023000001960E94C80A4D815E8157FD0AC02F8147
:102310003885421753070CF49A01F801E20FF31FB6
:1023200010822E96E4E00C943210FA01AA2728308D
:1023300051F1203181F1E8946F936E7F6E5F7F4F92
:102340008F4F9F4FAF4FB1E03ED0B4E03CD0670F0E
:10235000781F891F9A1FA11D680F791F8A1F911D61
:10236000A11D6A0F711D811D911DA11D20D009F4B1
:1023700068943F912AE0269F11243019305D3193F3
:10238000DEF6CF010895462F4770405D4193B3E0DC
:102390000FD0C9F7F6CF462F4F70405D4A3318F083
:1023A000495D31FD4052419302D0A9F7EACFB4E034
:1023B000A6959795879577956795BA95C9F70097EC
:1023C0006105710508959B01AC010A2E069457958D
:1023D000479537952795BA95C9F7620F731F841FE4
:0A23E000951FA01D0895F894FFCF8B
:1023EA0000E100000000084144435F50574D5F423E
:1023FA0041434B4C49474854003C2D2D2041646AC7
:10240A0075737420706F74004144433A2025640048
:00000001FF
