:100000000C947C020C9499020C9499020C94990221
:100010000C9499020C9499020C9499020C949902F4
:100020000C9499020C9499020C948C270C94C6277A
:100030000C9499020C9499020C9499020C949902D4
:100040000C9499020C9499020C9499020C949902C4
:100050000C94B2020C9499020C9499020C944D0CDD
:100060000C9499020C9498290C946D290C94990283
:100070000C9499020C9499020C9499020C94990294
:100080000C9499020C9499020C9499020C94990284
:100090000C9499020C9499020C9499020C94990274
:1000A0000C9499020C9499020C9499022D272927FB
:1000B000252721271D271927152711270D27092750
:1000C00005270127FD26F926F526F126ED26E92646
:1000D000E526E126DD26D926D526D126CD26C92638
:1000E000C526C126BD26B926B526B126AD26A92628
:1000F000A526A1269D269926952691268D26892618
:10010000852681267D267926752671266D26692607
:10011000652661265D265926552651264D264926F7
:10012000452641263D263926352631262D2605A889
:100130004CCDB2D44EB93836A9020C50B99186884C
:10014000083CA6AAAA2ABE000000803F6E616E008D
:10015000696E660000407A10F35A00A0724E1809CA
:100160000010A5D4E80000E87648170000E40B541E
:10017000020000CA9A3B000000E1F50500008096ED
:100180009800000040420F000000A086010000001F
:10019000102700000000E8030000000064000000D9
:1001A00000000A00000000000100000000002C76A2
:1001B000D888DC674F0823DFC1DFAE59E1B1B796BD
:1001C000E5E3E453C63AE651997696E8E6C284261A
:1001D000EB898C9B62ED407C6FFCEFBC9C9F40F2F6
:1001E000BAA56FA5F490055A2AF75C936B6CF96772
:1001F0006DC11BFCE0E40D47FEF520E6B500D0ED37
:10020000902E0300943577050080841E080000209E
:100210004E0A000000C80C333333330F986E12833C
:100220001141EF8D2114893BE65516CFFEE6DB1810
:10023000D1844B381BF77C1D901DA4BBE4242032D5
:1002400084725E228100C9F124ECA1E53D27000102
:100250000000FB021200020000B80243000300008D
:10026000B40204010309049E021402030904860275
:10027000160303090478020C0C033100320033002A
:1002800034003500000016035500530042002000E2
:10029000530065007200690061006C0000001403E7
:1002A00059006F007500720020004E0061006D0063
:1002B000650000000403090409024300020100C0B4
:1002C00032090400000102020100052400100105AA
:1002D0002401010104240206052406000107058209
:1002E0000310004009040100020A00000007050392
:1002F00002400000070584024000001201000202D3
:10030000000010C0167A040001010203010001C1BF
:1003100012018036018136000000000000005F00FD
:10032000000007000700147F147F14242A7F2A127C
:10033000231308646236495522500005030000006B
:100340001C2241000041221C0014083E0814080829
:100350003E080800503000000808080808006060E7
:10036000000020100804023E5149453E00427F40F3
:100370000042615149462141454B311814127F100A
:1003800027454545393C4A4949300171090503363D
:1003900049494936064949291E00363600000056AB
:1003A00036000008142241001414141414004122D1
:1003B00014080201510906324979413E7E1111119A
:1003C0007E7F494949363E414141227F4141221CBD
:1003D0007F494949417F090909013E4149497A7FDD
:1003E0000808087F00417F41002040413F017F080D
:1003F0001422417F404040407F020C027F7F04086E
:10040000107F3E4141413E7F090909063E4151218D
:100410005E7F09192946464949493101017F010199
:100420003F4040403F1F2040201F3F4038403F6337
:100430001408146307087008076151494543007F99
:1004400041410002040810200041417F00040201E4
:100450000204404040404000010204002054545433
:10046000787F484444383844444420384444487FE2
:100470003854545418087E0901020C5252523E7FDF
:100480000804047800447D40002040443D007F1073
:1004900028440000417F40007C041804787C080454
:1004A000047838444444387C14141408081414188C
:1004B0007C7C080404084854545420043F444020E1
:1004C0003C4040207C1C2040201C3C4030403C44B0
:1004D000281028440C5050503C4464544C440008AC
:1004E00036410000007F0000004136080010080877
:1004F000100878464146780011241FBECFEFDAE09D
:10050000DEBFCDBF13E0A0E0B1E0EAEEFBE602C043
:1005100005900D92A63EB107D9F727E0A6EEB3E00D
:1005200001C01D92A833B207E1F70E94FD240C948C
:10053000F3350C940000E1E8F0E08081877F808350
:1005400080818F7E808380818B7F808380818260A9
:10055000808380818E7F8083EFE6F0E08081816000
:10056000808308951F920F920FB60F9211242F933C
:100570004F935F936F937F938F939F93AF93BF93AB
:1005800080912B05811144C080916504811140C088
:1005900080918104909182040196909382048093CB
:1005A0008104809173049091740401969093740473
:1005B0008093730480911E0590911F05019690937E
:1005C0001F0580931E0580912C0590912D050196A5
:1005D00090932D0580932C058091AA049091AB04F3
:1005E0000297B1F480919F049091A004019690939A
:1005F000A00480939F0480918304882349F0809114
:100600006B0490916C04019690936C0480936B043E
:1006100040911405509115056091160570911705CC
:100620008091000290E0A0E0B0E02FB1440F551F90
:10063000661F771F482359236A237B2325FB222724
:1006400020F9422B4093140550931505609316052D
:10065000709317054091140550911505609116058A
:100660007091170584179507A607B70769F441E04D
:1006700050E060E070E040933C0550933D0560938E
:100680003E0570933F0514C0409114055091150527
:100690006091160570911705452B462B472B41F4A9
:1006A00010923C0510923D0510923E0510923F05B8
:1006B0004091960450919704609198047091990428
:1006C0002FB1440F551F661F771F482359236A23F4
:1006D0007B2326FB222720F9422B4093960450933C
:1006E00097046093980470939904409196045091F4
:1006F0009704609198047091990484179507A60750
:10070000B70769F441E050E060E070E040936104B5
:1007100050936204609363047093640414C0409126
:100720009604509197046091980470919904452B18
:10073000462B472B41F410926104109262041092F0
:10074000630410926404409118055091190560915A
:100750001A0570911B0529B1440F551F661F771F9D
:10076000482359236A237B232170422B4093180589
:100770005093190560931A0570931B054091180555
:100780005091190560911A0570911B058417950702
:10079000A607B70769F441E050E060E070E04093DD
:1007A000790450937A0460937B0470937C0414C0A2
:1007B000409118055091190560911A0570911B051B
:1007C000452B462B472B41F41092790410927A0462
:1007D00010927B0410927C044091FD045091FE0421
:1007E0006091FF047091000523B1440F551F661FEF
:1007F000771F482359236A237B2326952170422B98
:100800004093FD045093FE046093FF047093000531
:100810004091FD045091FE046091FF047091000529
:1008200084179507A607B70769F441E050E060E038
:1008300070E0409323055093240560932505709341
:10084000260514C04091FD045091FE046091FF0400
:1008500070910005452B462B472B41F41092230540
:1008600010922405109225051092260540912E0520
:1008700050912F05609130057091310529B1440FD9
:10088000551F661F771F482359236A237B2326950C
:100890002170422B40932E0550932F056093300515
:1008A0007093310540912E0550912F0560913005D0
:1008B0007091310584179507A607B70769F441E0E1
:1008C00050E060E070E04093A6045093A70460936A
:1008D000A8047093A90414C040912E0550912F05CF
:1008E0006091300570913105452B462B472B41F423
:1008F0001092A6041092A7041092A8041092A904C2
:100900004091320550913305609134057091350561
:1009100023B1440F551F661F771F482359236A23AD
:100920007B23221F2227221F422B40933205509304
:10093000330560933405709335054091320550912D
:100940003305609134057091350584179507A60726
:10095000B70769F441E050E060E070E040936F0455
:1009600050937004609371047093720414C04091AA
:100970003205509133056091340570913505452B52
:10098000462B472B41F410926F0410927004109282
:100990007104109272044091E6035091E703609154
:1009A000E8037091E90323B1440F551F661F771FB9
:1009B000482359236A237B232170422B4093E6036B
:1009C0005093E7036093E8037093E9034091E603D3
:1009D0005091E7036091E8037091E903841795074C
:1009E000A607B70769F481E090E0A0E0B0E080934B
:1009F000750490937604A0937704B093780414C0A0
:100A00008091E6039091E703A091E803B091E90398
:100A1000892B8A2B8B2B41F410927504109276044B
:100A20001092770410927804BF91AF919F918F91AB
:100A30007F916F915F914F912F910F900FBE0F900B
:100A40001F9018950F931F93CF93DF93A0E0B0E012
:100A500010E0EB01259604E59B01A901E3E0559523
:100A60004795EA95E1F7FD01409FE00DF11D112446
:100A7000E05CFA4FE80FF91F408150E0E22FE77089
:100A800002C055954795EA95E2F740FD11E02F5FCA
:100A90003F4FC217D30709F71196A530B105E1F60C
:100AA000812FDF91CF911F910F910895DF92EF92E7
:100AB000FF920F931F93CF93DF93D62E40916D0437
:100AC00050916E047A0124E0E20EF11C9B01D3E008
:100AD00035952795DA95E1F7C4E52C9F900111240F
:100AE000E62FE77001E010E002C0000F111FEA9549
:100AF000E2F7F901E80FF91FE05CFA4FDC01A05CB6
:100B0000BA4F2A0F3B1FEF01C21BD30BEC16FD0699
:100B10003CF0C191D0E0C023D123CD2BA1F35AC02A
:100B200021E030E08A010D5F1F4FD4E50217130763
:100B3000FCF0F901E60FF71FC3E0F595E795CA95BC
:100B4000E1F77C01ED9FE00CF11C1124F701E05C62
:100B5000FA4FE281F0E0CD2DC20FC77002C0F595CB
:100B6000E795CA95E2F7E0FD35C02F5F3F4FDECF36
:100B70009B012C5F3F4F240F351F73E03595279560
:100B80007A95E1F7C4E52C9F900111246C5F640F06
:100B90006770E1E0F0E07F0102C0EE0CFF1C6A9597
:100BA000E2F7B701F901E80FF91FE05CFA4FCA015B
:100BB00002962A0F3B1FAF01421B530B8417950768
:100BC0003CF0419150E046235723452BA1F302C04E
:100BD00080E001C081E0DF91CF911F910F91FF90E4
:100BE000EF90DF900895CF93DF93A62F262F2770E5
:100BF000C1E0D0E002C0CC0FDD1F2A95E2F79B01D7
:100C0000F3E035952795FA95E1F7FC0144E5249F3B
:100C1000E00DF11D1124E05CFA4F40E050E021911D
:100C200030E02C233D23232B51F54F5F5F4F4530A0
:100C30005105A9F721E030E0B4E5A901460F571F9F
:100C4000E3E055954795EA95E1F7FC014B9FE00DF0
:100C5000F11D1124E05CFA4F428150E0EA2FE20FCF
:100C6000E77002C055954795EA95E2F740FD07C049
:100C70002F5F3F4F2530310501F780E001C081E053
:100C8000DF91CF910895AF92BF92CF92DF92EF9212
:100C9000FF920F931F93CF93DF9389E1E82E82E0B9
:100CA000F82E09E312E061E172E041E352E029E04D
:100CB00032E0C9E2D2E0A1E0B2E091E2A92E92E0F6
:100CC000B92E84E090E0F701C190D1907F01F80146
:100CD000C192D1928F01FB01C190D190BF01FA0165
:100CE000C192D192AF01F901C190D1909F01C992F7
:100CF000D992CD90DD90F501C192D1925F0101971B
:100D000011F7DF91CF911F910F91FF90EF90DF903E
:100D1000CF90BF90AF900895CF92DF92EF92FF9265
:100D20000F931F93CF93DF93EC018B018FE4E82E99
:100D3000F12C9BE2C92ED12C0E94E333B7010E9413
:100D40001033BC01990F880B990B0E941F310E9430
:100D500080320E94E730798368830E94E333B601D2
:100D60000E941033BC01990F880B990B0E941F3110
:100D70000E9480320E94E730F801718360836930FD
:100D80007105D4F2888199810E9422058111D4CF06
:100D9000DF91CF911F910F91FF90EF90DF90CF9057
:100DA00008954F925F926F927F928F929F92AF922F
:100DB000BF92CF92DF92EF92FF920F93CF93DF9388
:100DC00000D000D0CDB7DEB7809084049090850429
:100DD000A0908604B090870460910D0570910E0577
:100DE00080910F05909110050E94E7306B017C0106
:100DF00060916D0470916E04072E000C880B990BA6
:100E00000E941F312B013C0120E030E040E850E41B
:100E1000C501B4010E94FF2F9B01AC01C301B201C7
:100E20000E94FF2F0E94E7302B013C01C501B40155
:100E30000E94E730DC01CB0101E09601A201B6017E
:100E40000E942D2A80900D0590900E05A0900F0510
:100E5000B090100560916D0470916E04072E000C27
:100E6000880B990B0E941F312B013C0120E030E0E0
:100E700040E050E460918404709185048091860480
:100E8000909187040E94FF2FA30192010E94FF2FDF
:100E90000E94E7306B017C0120E030E040E850E444
:100EA000C501B4010E94FF2FA30192010E94FF2FF0
:100EB0000E94E7302B013C01C501B4010E94E730DC
:100EC0009201A601C6010E942D2A60916D047091C5
:100ED0006E04072E000C880B990B0E941F314B01EA
:100EE0005C0140908404509085046090860470906A
:100EF000870420E030E040E850E460910D057091F7
:100F00000E0580910F05909110050E94FF2FA501FD
:100F100094010E94FF2F0E94E7306B017C01C30106
:100F2000B2010E94E73069837A838B839C8320E03F
:100F300030E040E050E4C301B2010E94FF2FA50160
:100F400094010E94FF2F0E94E730DC01CB01960143
:100F500049815A81B6010E942D2A0F900F900F905F
:100F60000F90DF91CF910F91FF90EF90DF90CF9096
:100F7000BF90AF909F908F907F906F905F904F90B9
:100F800008954F925F926F927F928F929F92AF924D
:100F9000BF92CF92DF92EF92FF920F938090A104C5
:100FA0009090A204A090A304B090A40460910505C1
:100FB0007091060580910705909108050E94E73021
:100FC0006B017C0120E030E040E850E4C501B40151
:100FD0000E94FF2F0E94E7302B013C01C501B401A4
:100FE0000E94E730DC01CB0101E09601A201B601CD
:100FF0000E942D2A8090050590900605A090070577
:10100000B090080520E030E040E050E46091A10499
:101010007091A2048091A3049091A4040E94FF2FD8
:101020000E94E7306B017C0120E030E040E850E4B2
:10103000C501B4010E94FF2F0E94E7302B013C0143
:10104000C501B4010E94E7309201A601C6010E94C9
:101050002D2A0F91FF90EF90DF90CF90BF90AF902F
:101060009F908F907F906F905F904F900895AF9278
:10107000BF92CF92DF92EF92FF920F93CF93DF93C5
:101080006C01EB017C0184E0E80EF11C01E09B01A6
:10109000A701C6010E942D2A5E0184E0A80EB11CA2
:1010A0009501A601BE01C6010E942D2A9501A70146
:1010B000B501C6010E942D2A9E012F5F3F4FA70157
:1010C000BE01C7010E942D2ABE016D5F7F4F9501B1
:1010D000A701C7010E942D2ADF91CF910F91FF90A8
:1010E000EF90DF90CF90BF90AF900895E8EDF1E0E2
:1010F00080E090E0A0E8BFEB80839183A283B3837C
:1011000084839583A683B783389622E0E030F20784
:1011100099F70895E0EBF1E080E090E0A0E8BFEB04
:1011200080839183A283B38384839583A683B783CB
:10113000389621E0E83DF20799F70895E8EAF1E0F2
:1011400080E090E0A0E8BFEB80839183A283B3832B
:1011500084839583A683B7830895E0E0F1E080E07F
:1011600090E0A0E8BFEB80839183A283B383848364
:101170009583A683B7830895E8E0F1E080E090E0EE
:10118000A0E8BFEB80839183A283B383848395839C
:10119000A683B783389621E0E83AF20799F70895D5
:1011A0008F929F92AF92BF92CF92DF92EF92FF9277
:1011B000CF93DF93C8EDD1E0C880D980EA80FB806F
:1011C00020E030E040E85FEBC701B6010E946B30E1
:1011D0008823E9F08C809D80AE80BF8020E030E0E5
:1011E00040E85FEBC501B4010E946B30882379F0C1
:1011F000C501B4010E94E7304B015C01C701B60193
:101200000E94E730DC01CB01B4010E943708289628
:1012100082E0C030D80781F6DF91CF91FF90EF9048
:10122000DF90CF90BF90AF909F908F900895AF9236
:10123000BF92CF92DF92EF92FF920F93CF93DF9303
:10124000EC016B015C0184E0A80EB11C6F5F7F4F65
:1012500001E09B01A501CE010E942D2A760184E0C8
:10126000E80EF11C22969701AE01B601CE010E9454
:101270002D2A9701A501B701CE010E942D2ADF91E9
:10128000CF910F91FF90EF90DF90CF90BF90AF90F4
:1012900008958F929F92AF92BF92CF92DF92EF927A
:1012A000FF92CF93DF93C0EBD1E0C880D980EA8072
:1012B000FB8020E030E040E85FEBC701B6010E9410
:1012C0006B308823E9F08C809D80AE80BF8020E069
:1012D00030E040E85FEBC501B4010E946B30882329
:1012E00079F0C501B4010E94E7304B015C01C701F0
:1012F000B6010E94E730DC01CB01B4010E9417095E
:10130000289681E0C83DD80781F6DF91CF91FF9004
:10131000EF90DF90CF90BF90AF909F908F90089507
:101320008F929F92AF92BF92CF92DF92EF92FF92F5
:10133000CF93DF93C8E0D1E0C880D980EA80FB80FA
:1013400020E030E040E85FEBC701B6010E946B305F
:101350008823F1F08C809D80AE80BF8020E030E05B
:1013600040E85FEBC501B4010E946B30882381F037
:10137000C501B4010E94E7304B015C01C701B60111
:101380000E94E730DC01CB0141E0B4010E94F42966
:10139000289681E0C83AD80779F6DF91CF91FF907F
:1013A000EF90DF90CF90BF90AF909F908F90089577
:1013B0004F925F926F927F92AF92BF92CF92DF92E5
:1013C000EF92FF920F93CF93DF936091A8017091FA
:1013D000A9018091AA019091AB010E94E7302B01F5
:1013E0003C016091AC017091AD018091AE01909192
:1013F000AF010E94E7306B017C012FEF42165206CD
:1014000009F441C06F3F7F4FF1F1520182E0A80E15
:10141000B11C01E09601A501B601C2010E942D2A6E
:10142000E60124969E01A201B601C2010E942D2A66
:101430009E01A501BE01C2010E942D2AE201239650
:10144000B6016F5F7F4F41E0CE010E94F429B601E3
:101450006E5F7F4FC201049641E00E94F429B601FD
:101460006D5F7F4F41E0CE01DF91CF910F91FF90F3
:10147000EF90DF90CF90BF90AF907F906F905F9094
:101480004F900C94F429DF91CF910F91FF90EF9042
:10149000DF90CF90BF90AF907F906F905F904F9014
:1014A00008954F925F926F927F92AF92BF92CF92C8
:1014B000DF92EF92FF920F93CF93DF936091000141
:1014C0007091010180910201909103010E94E73027
:1014D0002B013C01EB0160910401709105018091A9
:1014E0000601909107010E94E7306B017C012FEF0C
:1014F0004216520619F16F3F7F4F01F1249601E029
:101500009601AE01B601C2010E942D2A96012C5F00
:101510003F4FA201B601C2010E942D2A560182E06E
:10152000A80EB11C9501AE01B601CE010E942D2A74
:101530009501AE01B501C2010E942D2ADF91CF9124
:101540000F91FF90EF90DF90CF90BF90AF907F9082
:101550006F905F904F9008958F929F92AF92BF923D
:10156000CF92DF92EF92FF920E94E333BC01990F7A
:10157000880B990B0E941F312BED3FE049E450E4AA
:101580000E9413329B01AC010E94FF2F20E03EEF2E
:101590004FEF56E40E94753060937D0470937E0493
:1015A00080937F04909380040E94E333BC01990FE1
:1015B000880B990B0E941F3120E03EEF4FEF56E45D
:1015C0000E9475302DEC3CEC4CEC5EE30E94133233
:1015D0006B017C012AE939E949E95EE30E946B303D
:1015E00087FD09C0C0929104D0929204E0929304C6
:1015F000F09294040CC08AE999E9A9E9BEE38093CA
:10160000910490939204A0939304B09394048090D7
:101610007D0490907E04A0907F04B0908004C5016A
:10162000B4010E947030C0909104D0909204E09078
:101630009304F0909404A70196010E9413326093E2
:101640000105709302058093030590930405C5017D
:10165000B4010E94A4329B01AC01C701B6010E94F3
:1016600013326093670470936804809369049093C5
:101670006A04FF90EF90DF90CF90BF90AF909F9063
:101680008F9008958091AA049091AB04029751F431
:101690000E942825811106C00E940F250E9428253E
:1016A0008823E1F30895519821982798509820981D
:1016B00085988698229A239A089540E050E06EE932
:1016C00072E44093A1045093A2046093A304709326
:1016D000A40480E090E0ACE1B2E48093050590932F
:1016E0000605A0930705B09308054093090550939C
:1016F0000A0560930B0570930C0580933605909353
:101700003705A0933805B0933905109284041092E0
:101710008504109286041092870480E090E0A0E196
:10172000B1E480930D0590930E05A0930F05B0933F
:10173000100510929B0410929C0410929D0410922C
:101740009E048093890490938A04A0938B04B093A1
:101750008C0485E090E0909321058093200581E042
:1017600090E09093AB048093AA041092900410929E
:101770008F041092270510922805109229051092C7
:101780002A0510928204109281041092740410921F
:10179000730410921F0510921E051092A00410925F
:1017A0009F0410926C0410926B0410922D051092FD
:1017B0002C051092880490931205809311051092C5
:1017C0008E0410928D0410926E0410926D0410928B
:1017D00060041092650410929A041092A50410926D
:1017E00095041092130510926604109283040895D4
:1017F00080918304882331F080916004885F809316
:101800006004089510926004089585B5877F85BDB2
:1018100085B58B7F85BD85B58D7F85BD85B581609F
:1018200085BDEEE6F0E08081816080830895AF920F
:10183000BF92CF92DF92EF92FF920F93CF93DF93FD
:10184000C1E2D2E081E3A82E82E0B82E99E2C92E4F
:1018500092E0D92E29E3E22E22E0F22E299139914D
:10186000F501419151915F01F601619171916F0113
:1018700001E0F701819191917F010E942D2AF2E010
:10188000C932DF0759F7DF91CF910F91FF90EF90A9
:10189000DF90CF90BF90AF9008951F920F920FB638
:1018A0000F9211248F939F938091110590911205AF
:1018B00001969093120580931105809183048823EB
:1018C00089F09091880480916004981718F42A9AFE
:1018D0002B9A02C02A982B98809188048F5F80935E
:1018E000880402C02A982B989F918F910F900FBE69
:1018F0000F901F901895CF92DF92EF92FF92CF93A7
:10190000DF936091810470918204C0918400D09132
:101910008500072E000C880B990B0E941F3120E0D8
:1019200030E040E857E40E9413326B017C01BE01B5
:1019300080E090E00E941D319B01AC01C701B6011F
:101940000E94FF2F20E030E040E051E40E9413327B
:1019500020E034E244EF5AE40E947530609327059A
:10196000709328058093290590932A050E94E730FB
:1019700070931D0560931C056C33710569F410921A
:1019800082041092810480913A0590913B05019662
:1019900090933B0580933A05DF91CF91FF90EF90B4
:1019A000DF90CF900895CF92DF92EF92FF920F9346
:1019B0001F93CF93DF9300D000D0CDB7DEB78091D7
:1019C0009A0481113EC06091730470917404009177
:1019D000840010918500072E000C880B990B0E9443
:1019E0001F3120E030E040E857E40E9413326B01E1
:1019F0007C01B80180E090E00E941D319B01AC01A8
:101A0000C701B6010E94FF2F20E030E040E051E422
:101A10000E94133220E034E244EF5AE40E94753011
:101A20000E94E730623071050CF45FC010927404BC
:101A30001092730498EDE92E91E0F92E00E010E089
:101A400005C010927404109273044FC020E030E07F
:101A500040E85FEBF70160817181828193810E9490
:101A60006B30811136C020E030E040E85FEBF701D9
:101A700064817581868197810E946B30811129C0B4
:101A8000BE016F5F7F4FCE0103960E948C0683E0FC
:101A9000000F111F8A95E1F708521E4F6B817C8160
:101AA000072E000C880B990B0E941F31F8016083F0
:101AB00071838283938369817A81072E000C880B5E
:101AC000990B0E941F31F801648375838683978385
:101AD0000CC00F5F1F4FF8E0EF0EF11C0530110531
:101AE00009F0B4CF81E080939A040F900F900F908B
:101AF0000F90DF91CF911F910F91FF90EF90DF90AA
:101B0000CF900895CF92DF92EF92FF92CF93DF9321
:101B100060919F047091A004C0918400D0918500D1
:101B2000072E000C880B990B0E941F3120E030E03B
:101B300040E857E40E9413326B017C01BE0180E053
:101B400090E00E941D319B01AC01C701B6010E94CB
:101B5000FF2F20E030E040E051E40E94133220E00B
:101B600034E244EF5AE40E9475300E94E730653059
:101B700071050CF448C01092A00410929F0420E05C
:101B800030E040E85FEB60910001709101018091CD
:101B90000201909103010E946B30811134C020E05A
:101BA00030E040E85FEB60910401709105018091A5
:101BB0000601909107010E946B30811124C0609151
:101BC000A1047091A2048091A3049091A4040E94A6
:101BD0008032609300017093010180930201909321
:101BE00003016091050570910605809107059091AC
:101BF00008050E9480326093040170930501809370
:101C0000060190930701DF91CF91FF90EF90DF9055
:101C1000CF900895CF92DF92EF92FF920F931F9390
:101C2000CF93DF938091A50481113CC060911E0584
:101C300070911F05C0918400D0918500072E000C83
:101C4000880B990B0E941F3120E030E040E857E4F8
:101C50000E9413326B017C01BE0180E090E00E9483
:101C60001D319B01AC01C701B6010E94FF2F20E08E
:101C700030E040E051E40E94133220E034E244EFCF
:101C80005AE40E9475300E94E730633071050CF40D
:101C900056C010921F0510921E0500EB11E0C0E027
:101CA000D0E005C010921F0510921E0548C020E02C
:101CB00030E040E85FEBF8016081718182819381BF
:101CC0000E946B30811131C020E030E040E85FEBD2
:101CD000F80164817581868197810E946B30811142
:101CE00024C06091A1047091A2048091A3049091FA
:101CF000A4040E94803223E0CC0FDD1F2A95E1F777
:101D0000C055DE4F688379838A839B836091050584
:101D10007091060580910705909108050E94803218
:101D20006C837D838E839F830AC02196085F1F4F3B
:101D3000C530D10509F0BBCF81E08093A504DF91C8
:101D4000CF911F910F91FF90EF90DF90CF9008956A
:101D5000CF93DF9300D000D0CDB7DEB7809165047C
:101D6000811134C080911305811130C080918F049E
:101D700090919004059754F1BE016F5F7F4FCE01A3
:101D800003960E948C066B817C81072E000C880BC9
:101D9000990B0E941F316093A8017093A901809351
:101DA000AA019093AB0169817A81072E000C880B00
:101DB000990B0E941F316093AC017093AD01809329
:101DC000AE019093AF0181E0809313050F900F90C7
:101DD0000F900F90DF91CF9108950F931F93CF93A2
:101DE000DF9340917504509176046091770470916F
:101DF00078048091EF0390E0A0E0B0E084179507AD
:101E0000A607B70729F480912205863609F05BC042
:101E10008091750490917604A0917704B091780434
:101E20008093EF03813029F080912205863609F0F6
:101E30004AC080916604882309F445C008E011E097
:101E4000C0E0D0E020E030E040E85FEBF8016081E6
:101E50007181828193810E946B3081112DC020E0BD
:101E600030E040E85FEBF8016481758186819781FD
:101E70000E946B30811120C083E0CC0FDD1F8A955A
:101E8000E1F7C85FDE4F8091840490918504A091B2
:101E90008604B091870488839983AA83BB83809149
:101EA0000D0590910E05A0910F05B09110058C8342
:101EB0009D83AE83BF8307C02196085F1F4FC43147
:101EC000D10509F0BFCFDF91CF911F910F910895F8
:101ED000CF92DF92EF92FF92CF93DF9360916B04EA
:101EE00070916C04C0918400D0918500809183042E
:101EF0008823A1F1072E000C880B990B0E941F313B
:101F000020E030E040E857E40E9413326B017C018E
:101F1000BE0180E090E00E941D319B01AC01C70131
:101F2000B6010E94FF2F20E030E040E051E40E9423
:101F3000133220E034E244EF5AE40E9475300E94EC
:101F4000E7306A30710554F01092830410926C04EB
:101F500010926B0410926E0410926D04DF91CF9179
:101F6000FF90EF90DF90CF90089580912B05811125
:101F700030C040913C0550913D0560913E05709107
:101F80003F058091ED0390E0A0E0B0E08417950755
:101F9000A607B70721F4809122058037D1F48091FC
:101FA0003C0590913D05A0913E05B0913F05809381
:101FB000ED03813021F080912205803751F480912A
:101FC0006504811104C081E0809365040895109236
:101FD000650408958091200590912105892B19F4BD
:101FE00081E08093950408958091AA049091AB04B8
:101FF000029721F40E942B25809322050895E1E6A3
:10200000F0E080E8808381E080838FE30E94382CB9
:102010000E94682C0E94BF290E9443060E947608F5
:102020000E948A080E94BC080E949E080E94AD0877
:102030000E945D0B0E94050C0E94530B0E949B02A4
:102040000E94AC0A78940895409161045091620412
:1020500060916304709164048091EE0390E0A0E0CD
:10206000B0E084179507A607B70721F480912205F1
:102070008C3631F58091610490916204A0916304E3
:10208000B09164048093EE03813021F080912205A9
:102090008C36B1F480911305882391F08091AA04C5
:1020A0009091AB04019749F40E94FF0F82E090E009
:1020B0009093AB048093AA04089581E080939504E3
:1020C00008952F923F925F926F927F928F929F928C
:1020D000AF92BF92CF92DF92EF92FF920F931F9336
:1020E000CF93DF9300D000D0CDB7DEB760912C0541
:1020F00070912D0520918400309185003A832983C9
:10210000072E000C880B990B0E941F3120E030E055
:1021100040E857E40E9413326B017C01A981BA8127
:10212000BD0180E090E00E941D319B01AC01C70120
:10213000B6010E94FF2F20E030E040E051E40E9411
:10214000133220E034E244EF5AE40E9475304B0130
:102150005C0181E00E94C3299A838983BC01990FA5
:10216000880B990B29813A81213032400CF48AC1C5
:102170000E941F3120E030E040E054E40E94FE2F36
:102180009B01AC0160E070E080E094E40E94753057
:10219000512CA50194010E946B3018160CF491C1CA
:1021A00010922D0510922C05E9E2F2E081E292E016
:1021B000A9E3B2E0BC83AB8321E332E03A83298315
:1021C00021E3222E22E0322E39E0A32EB12C4FE261
:1021D000E42EF12C53E5C52ED12C20813181DC0178
:1021E0004D915C9111972417350701F551100FC0DF
:1021F000215031093183208311963C932E9329304D
:102200003105A4F4F182E082ED92FC920FC02F5FC1
:102210003F4F31832083DC0111963C932E93203372
:10222000310524F0B182A082AD92BC92AB81BC8119
:102230002D913C91A981BA814D915C91241735076C
:1022400069F5511017C02F5F3F4FAB81BC812D93B3
:102250003C93A981BA812D933C93243531050CF42C
:102260008AC0AB81BC811D921C92A981BA811D924A
:102270001C9214C021503109AB81BC812D933C9339
:10228000A981BA812D933C9337FF75C0AB81BC8186
:10229000CD92DC92A981BA81CD92DC92AB81BC81D6
:1022A0006D917C91A981BA814D915C914617570738
:1022B0000CF061C0DC010D911C912081318148013D
:1022C000821A930A3B01641A750A511029C06F5F84
:1022D0007F4FAB81BC816D937C932F5F3F4F3183E8
:1022E00020834F5F5F4FA981BA814D935C930F5F4D
:1022F0001F4FDC010D931C9300331105E4F1AB81FA
:10230000BC816D927C92B182A082B9E08B0E911C4F
:10231000DC018D929C92A981BA811D921C922BC0E6
:1023200061507109AB81BC816D937C93215031095F
:102330003183208341505109A981BA814D935C9327
:1023400001501109DC010D931C93293031059CF4D7
:10235000AB81BC81CD92DC92970128193909318378
:102360002083DC01ED92FC92960126193709A981A0
:10237000BA812D933C93AB81BC810D911C91A981B5
:10238000BA812D913C91021713070CF069C0DC0152
:102390006D917C9140815181461757070CF060C0C8
:1023A0004B01841A950A3901601A710A51102DC027
:1023B00001501109AB81BC810D931C934F5F5F4F9E
:1023C0005183408321503109A981BA812D933C93D7
:1023D0006F5F7F4FDC016D937C93603371050CF46C
:1023E0003FC0960126193709AB81BC812D933C93E0
:1023F000B182A082B9E08B0E911CDC018D929C927F
:10240000A981BA81CD92DC922BC00F5F1F4FAB81A7
:10241000BC810D931C9341505109518340832F5F20
:102420003F4FA981BA812D933C9361507109DC0122
:102430006D937C93493051051CF02435310584F0AF
:10244000AB81BC811D921C929701281939093183F7
:102450002083DC01ED92FC92A981BA816D927C927D
:10246000329602962B813C812E5F3F4F3C832B831B
:10247000A981BA811296BA83A9832E163F0609F064
:10248000ACCE1FC00E941F316B017C0160E074E084
:1024900029813A81621B730B072E000C880B990B64
:1024A0000E941F319B01AC01C701B6010E9475302B
:1024B00020E030E040E85FE30E94FF2F5524539472
:1024C00068CE0F900F900F900F90DF91CF911F91DA
:1024D0000F91FF90EF90DF90CF90BF90AF909F90C3
:1024E0008F907F906F905F903F902F900895CF9244
:1024F000DF92EF92FF928091830481113DC0609141
:102500000D0570910E0580910F05909110050E94A8
:10251000E7306B017C0160918404709185048091A7
:102520008604909187040E94E730DC01CB01B6015C
:102530000E945605882301F180919B0490919C0490
:10254000A0919D04B0919E0480938404909385048F
:10255000A0938604B09387048091890490918A04A3
:10256000A0918B04B0918C0480930D0590930E057F
:10257000A0930F05B0931005FF90EF90DF90CF90E0
:1025800008958F929F92AF92BF92CF92DF92EF9277
:10259000FF92609105057091060580910705909165
:1025A00008050E9480326B017C016091A10470914A
:1025B000A2048091A3049091A4040E9480324B0154
:1025C0005C01C701B6010E94E7306B017C01C501C7
:1025D000B4010E94E730DC01CB01B6010E94F30593
:1025E000882301F18091090590910A05A0910B05BE
:1025F000B0910C058093A1049093A204A093A3042E
:10260000B093A4048091360590913705A0913805C8
:10261000B09139058093050590930605A0930705B1
:10262000B0930805FF90EF90DF90CF90BF90AF90F0
:102630009F908F900895FC0101900020E9F7319759
:10264000BF01681B790B0C94DA25EF92FF920F9370
:102650001F93CF93DF938091AA049091AB040297CC
:1026600009F05DC180912205893609F058C1809139
:102670001D058F9380911C058F9380913B058F934F
:1026800080913A058F938CE492E09F938F931F92F1
:1026900011E51F93CCEAD4E0DF93CF930E94243559
:1026A000CE010E941B138091AB048F938091AA04EA
:1026B0008F938DE692E09F938F931F921F93DF93EA
:1026C000CF930E942435CE010E941B1380912105D7
:1026D0008F93809120058F938DE792E09F938F9346
:1026E0001F921F93DF93CF930E942435CE010E9447
:1026F0001B13809190048F9380918F048F9384E9B2
:1027000092E09F938F931F921F93DF93CF930E942A
:1027100024358DB79EB782960FB6F8949EBF0FBE34
:102720008DBFCE010E941B13C8E0D1E000E010E095
:1027300020E030E040E85FEB688179818A819B810D
:102740000E946B30882371F020E030E040E85FEBBE
:102750006C817D818E819F810E946B30882311F076
:102760000F5F1F4F289691E0C83AD90709F71F93CA
:102770000F9388EA92E09F938F931F9281E58F9346
:102780008CEA94E09F938F930E9424358CEA94E026
:102790000E941B13C0EBD1E08DB79EB708960FB611
:1027A000F8949EBF0FBE8DBF00E010E020E030E047
:1027B00040E85FEB688179818A819B810E946B3060
:1027C000882371F020E030E040E85FEB6C817D8190
:1027D0008E819F810E946B30882311F00F5F1F4F05
:1027E000289691E0C83DD90709F71F930F9381ED13
:1027F00092E09F938F931F9281E58F938CEA94E0F0
:102800009F938F930E9424358CEA94E00E941B13BF
:10281000C8EDD1E080E0E82E82E0F82E8DB79EB7BB
:1028200008960FB6F8949EBF0FBE8DBF00E010E073
:1028300020E030E040E85FEB688179818A819B810C
:102840000E946B30882371F020E030E040E85FEBBD
:102850006C817D818E819F810E946B30882311F075
:102860000F5F1F4F2896EC16FD0611F71F930F936D
:1028700086EF92E09F938F931F9211E51F93CCEA0E
:10288000D4E0DF93CF930E942435CE010E941B1326
:1028900080918E048F9380918D048F938DE193E0CE
:1028A0009F938F931F921F93DF93CF930E942435A2
:1028B000CE010E941B138DB79EB740960FB6F894B9
:1028C0009EBF0FBE8DBF80918304882339F067E4DB
:1028D00073E0CE010E94D634CE0108C060E673E0FA
:1028E0008CEA94E00E94D6348CEA94E00E941B1398
:1028F00080916504882319F06AE773E002C06EE8EE
:1029000073E08CEA94E00E94D6348CEA94E0DF9184
:10291000CF911F910F91FF90EF900C941B13DF91BB
:10292000CF911F910F91FF90EF90089581E08093D8
:102930002B0580912B05882309F440C040913C056C
:1029400050913D0560913E0570913F058091EB03EC
:1029500090E0A0E0B0E084179507A607B70771F0F4
:1029600080913C0590913D05A0913E05B0913F05B9
:102970008093EB03813011F410922B050E94EC2917
:1029800021E043EA53E06AE070E08FE090E00E94CB
:10299000F52B21E041EB53E064E170E08FE090E043
:1029A0000E94F52B21E04BEB53E06EE170E08FE0ED
:1029B00090E00E94F52B0E94D929BBCF2FEF82E532
:1029C00097E0215080409040E1F700C0000008955A
:1029D000809195048823C9F140913C0550913D05B3
:1029E00060913E0570913F058091EA0390E0A0E080
:1029F000B0E084179507A607B70781F080913C05E2
:102A000090913D05A0913E05B0913F058093EA036A
:102A1000813021F40E94FF0F0E9496140E94EC293D
:102A200021E046EC53E064E170E084E190E00E9434
:102A3000F52B0E94D9292FEF80E792E021508040AA
:102A40009040E1F700C00000C3CF08950F93CF93EB
:102A5000DF93D82FC62F5F934F933F932F9381ED32
:102A600093E09F938F931F9281E58F938CEA94E07C
:102A70009F938F930E9424358DB79EB70A960FB609
:102A8000F8949EBF0FBE8DBF6C2F70E0202F4CEAD4
:102A900054E08D2F90E0DF91CF910F910C94F52BA6
:102AA0001F93CF93DF93D82FC62F122F5F934F938F
:102AB00084ED93E09F938F931F9281E58F938CEA2F
:102AC00094E09F938F930E9424358DB79EB708960C
:102AD0000FB6F8949EBF0FBE8DBF6C2F70E0212FF4
:102AE0004CEA54E08D2F90E0DF91CF911F910C9430
:102AF000F52B1F93CF93DF93D82FC62F122F5F9301
:102B00004F9389ED93E09F938F931F9281E58F936D
:102B10008CEA94E09F938F930E9424358DB79EB7E3
:102B200008960FB6F8949EBF0FBE8DBF6C2F70E055
:102B3000212F4CEA54E08D2F90E0DF91CF911F912F
:102B40000C94F52B0F9321E04CED53E060E070E026
:102B500080E090E00E94F52B4091AA045091AB04D4
:102B600021E060E08EE00E94791521E040EE53E024
:102B700060E070E084E190E00E94F52B4091200538
:102B80005091210521E060E08DE10E94791521E05E
:102B900043EE53E060E070E083E290E00E94F52BAA
:102BA00040918F045091900421E060E08CE20E94FB
:102BB000791540913A0550913B0521E060E08CE3A6
:102BC0000E94501521E04AE360E070E086E490E066
:102BD0000E948F2B6091270570912805809129050F
:102BE00090912A050E94E73021E0AB0160E08AE481
:102BF0000E94501501E028E030E044E550E068E034
:102C000070E080E090E00E942D2A0F9108950E94CC
:102C1000EC290E9461100E94170C0E9477120E94FA
:102C2000C1120E94EC1D0E9461230E94D0080E94E4
:102C300049090E94D1060E94C1070E9490090E9482
:102C4000D8090E94510A0E94A2150C94D9298F928A
:102C50009F92AF92BF92CF92DF92EF92FF920F932B
:102C60001F93CF93DF938C01EB010E94EC290E940C
:102C7000170C688179818A819B810E94E7306B0102
:102C80007C015B0183E0B594A7948A95E1F7BB24AE
:102C9000F80160817181828193810E94E73044E56F
:102CA0004A9D90014B9D300D1124205C3A4FF90153
:102CB000E60FF71F808190E02C2D277002C09595BC
:102CC00087952A95E2F780FF0DC080E090E0A0E8AC
:102CD000BFEBF80180839183A283B38388839983B8
:102CE000AA83BB830E9407160E94D929F801C080DD
:102CF000D180E280F3808090A1049090A204A09003
:102D0000A304B090A404A5019401C701B6010E94D8
:102D10000E3287FD62C020E030E040E850E4C5019B
:102D2000B4010E94FF2F9B01AC01C701B6010E94B4
:102D30006B3018160CF451C0C880D980EA80FB8033
:102D40008090050590900605A0900705B0900805B5
:102D5000A5019401C701B6010E940E3287FD3DC056
:102D600020E030E040E850E4C501B4010E94FF2FAC
:102D70009B01AC01C701B6010E946B3018166CF1C3
:102D800080E090E0A0E8BFEBF80180839183A2830C
:102D9000B38388839983AA83BB838091090590912B
:102DA0000A05A0910B05B0910C058093A1049093A6
:102DB000A204A093A304B093A4048091360590913B
:102DC0003705A0913805B09139058093050590939A
:102DD0000605A0930705B0930805DF91CF911F91D9
:102DE0000F91FF90EF90DF90CF90BF90AF909F90AA
:102DF0008F9008954F925F926F927F928F929F92E1
:102E0000AF92BF92CF92DF92EF92FF92CF93DF9378
:102E100000D000D000D0CDB7DEB788E091E09E832F
:102E20008D83ED81FE81C080D180E280F38020E03F
:102E300030E040E85FEBC701B6010E946B308823A9
:102E400009F4AFC0ED81FE8184809580A680B780B3
:102E500020E030E040E85FEBC501B4010E946B3038
:102E6000882309F49EC020E030E040E050E4609107
:102E7000A1047091A2048091A3049091A4040E94E3
:102E8000FF2F0E9480322B013C019B01AC01C70146
:102E9000B6010E946B3020E030E040E050E4811148
:102EA00028C06091050570910605809107059091F5
:102EB00008050E94FF2F0E9480329B01AC01C501D2
:102EC000B4010E940E3223E333E343E35FE31816B9
:102ED0002CF4C501B4010E94FE2F04C0C501B40149
:102EE0000E94FF2FED81FE81648375838683978323
:102EF00050C060910505709106058091070590917D
:102F000008050E94FF2F0E94803269837A838B8399
:102F10009C839B01AC01C501B4010E946B308823E6
:102F2000E9F029813A814B815C81C501B4010E949D
:102F30000E3223E333E343E35FE318162CF4C501B9
:102F4000B4010E94FE2F04C0C501B4010E94FF2FEE
:102F5000ED81FE816483758386839783A30192014B
:102F6000C701B6010E940E3223E333E343E35FE37C
:102F700018162CF4C701B6010E94FE2F04C0C70129
:102F8000B6010E94FF2FED81FE81608371838283F1
:102F900093836D817E816C5F7F4F8D819E810E94C6
:102FA00027168D819E8108969E838D83885A914035
:102FB00009F037CF26960FB6F894DEBF0FBECDBF0F
:102FC000DF91CF91FF90EF90DF90CF90BF90AF90C7
:102FD0009F908F907F906F905F904F9008950E9488
:102FE000F40F0E94B50F0E94D30C0E940A0E0E949B
:102FF000A80E0E94ED0E0E94820D0E94FA160E94F9
:10300000680F0E9424100E94EA0F0E94420B0E9447
:1030100025130E94F80B0E94E814809111059091ED
:1030200012050C94E8332F923F924F925F926F9269
:103030007F928F929F92AF92BF92CF92DF92EF9248
:10304000FF920F931F93CF93DF93CDB7DEB76497B3
:103050000FB6F894DEBF0FBECDBF1C016B0128ED8B
:1030600031E03C8B2B8B10E001E0CB01770FAA0BFA
:10307000BB0B8B879C87AD87BE87C101032C000CDF
:10308000AA0BBB0B8F87988BA98BBA8B1111C3C06E
:1030900037FCE4C080916D0490916E04DC011496BD
:1030A000BA83A9838091840490918504A0918604B9
:1030B000B09187048B839C83AD83BE8380910D0583
:1030C00090910E05A0910F05B09110058F83988700
:1030D000A987BA87E12CF12C29813A812E153F0569
:1030E0000CF4BCC06F85788989899A890E941F3148
:1030F0002B813C814D815E810E94FF2F0E94803296
:103100004B015C01AB89BC894D905D906D907C90CA
:10311000C301B2010E9480329B01AC01C501B40120
:103120000E940E3287FD47C020E030E040E850E4C6
:10313000C301B2010E94FF2F0E9480329B01AC01AB
:10314000C501B4010E946B301816ACF1B7010F2C09
:10315000000C880B990B0E941F312F8138854985FF
:103160005A850E94FF2F0E9480324B015C01EB893F
:10317000FC894480558066807780C301B2010E943B
:1031800080329B01AC01C501B4010E940E3287FD63
:1031900012C020E030E040E850E4C301B2010E94D8
:1031A000FF2F0E9480329B01AC01C501B4010E9437
:1031B0006B30181624F4FFEFEF1AFF0A8DCFD7FCFF
:1031C000BDC011E080916D0490916E04DC011496F5
:1031D000BA83A9838091840490918504A091860488
:1031E000B09187048B839C83AD83BE8380910D0552
:1031F00090910E05A0910F05B09110058F839887CF
:10320000A987BA87E12CF12C29813A812E153F0537
:1032100044F5111193C02B893C89285F3F4F3C8BAB
:103220002B8B2050324009F031CF64960FB6F894C2
:10323000DEBF0FBECDBFDF91CF911F910F91FF90E9
:10324000EF90DF90CF90BF90AF909F908F907F9046
:103250006F905F904F903F902F900895D7FEB2CF20
:10326000DACFB7010F2C000C880B990B0E941F318D
:103270002B813C814D815E810E94FF2F0E94803214
:103280004B015C01AB89BC894D905D906D907C9049
:10329000C301B2010E9480329B01AC01C501B4019F
:1032A0000E940E3287FD46C020E030E040E850E446
:1032B000C301B2010E94FF2F0E9480329B01AC012A
:1032C000C501B4010E946B301816A4F16B857C8592
:1032D0008D859E850E941F312F81388549855A85AD
:1032E0000E94FF2F0E9480324B015C01EB89FC8918
:1032F0004480558066807780C301B2010E9480328D
:103300009B01AC01C501B4010E940E3287FD12C0C1
:1033100020E030E040E850E4C301B2010E94FF2FFA
:103320000E9480329B01AC01C501B4010E946B3048
:10333000181624F4FFEFEF1AFF0A66CF0E94EC295B
:103340000E94D00860910D0570910E0580910F05C7
:10335000909110050E94E7304B015C01609184045C
:103360007091850480918604909187040E94E730D3
:10337000DC01CB01B4010E945605882339F180E0BD
:1033800090E0A0E8BFEBEB89FC8980839183A28366
:10339000B38384839583A683B78380918F049091B0
:1033A000900401969093900480938F0420918D0453
:1033B00030918E042F5F3F4F30938E0420938D0405
:1033C00010929A04039711F4009366040E94071662
:1033D0000E94D92911E01FCF2F923F924F925F9206
:1033E0006F927F928F929F92AF92BF92CF92DF9215
:1033F000EF92FF920F931F93CF93DF93CDB7DEB77A
:1034000063970FB6F894DEBF0FBECDBF2091830443
:10341000211195C16B018C0180EB91E09B8B8A8B14
:103420001982CB01770FAA0BBB0B8A879B87AC87CE
:10343000BD87C801012E000CAA0BBB0B8E879F878E
:10344000A88BB98B99819111BFC017FDC7C020907F
:103450006D0430906E04A4E02A0E311C8091840427
:1034600090918504A0918604B09187048A839B8300
:10347000AC83BD8380910D0590910E05A0910F0541
:10348000B09110058E839F83A887B987E12CF12C1A
:103490002E143F040CF4A2C06E857F85888999891B
:1034A0000E941F312A813B814C815D810E94FF2F48
:1034B0000E9480324B015C01AA89BB894D905D90CE
:1034C0006D907C90C301B2010E9480329B01AC01DF
:1034D000C501B4010E940E3287FD47C020E030E0F4
:1034E00040E850E4C301B2010E94FF2F0E948032E5
:1034F0009B01AC01C501B4010E946B301816ACF100
:10350000B7010F2C000C880B990B0E941F312E81E4
:103510003F81488559850E94FF2F0E9480324B01D0
:103520005C01EA89FB894480558066807780C3010D
:10353000B2010E9480329B01AC01C501B4010E941E
:103540000E3287FD12C020E030E040E850E4C301B5
:10355000B2010E94FF2F0E9480329B01AC01C50185
:10356000B4010E946B30181624F4FFEFEF1AFF0A23
:103570008FCFD7FCA3C021E0298320906D04309029
:103580006E0484E0280E311C80918404909185049F
:10359000A0918604B09187048A839B83AC83BD830A
:1035A00080910D0590910E05A0910F05B091100529
:1035B0008E839F83A887B987E12CF12C2E143F04BA
:1035C00084F4298121117AC08A899B8908969B8B72
:1035D0008A8B885D914009F035CFB1C0D7FECDCF41
:1035E000F3CFB7010F2C000C880B990B0E941F31F1
:1035F0002A813B814C815D810E94FF2F0E94803295
:103600004B015C01AA89BB894D905D906D907C90C7
:10361000C301B2010E9480329B01AC01C501B4011B
:103620000E940E3287FD46C020E030E040E850E4C2
:10363000C301B2010E94FF2F0E9480329B01AC01A6
:10364000C501B4010E946B301816A4F16A857B8510
:103650008C859D850E941F312E813F81488559852B
:103660000E94FF2F0E9480324B015C01EA89FB8996
:103670004480558066807780C301B2010E94803209
:103680009B01AC01C501B4010E940E3287FD12C03E
:1036900020E030E040E850E4C301B2010E94FF2F77
:1036A0000E9480329B01AC01C501B4010E946B30C5
:1036B000181624F4FFEFEF1AFF0A80CF0E94EC29BE
:1036C0000E94490960910D0570910E0580910F05CA
:1036D000909110050E94E7304B015C0160918404D9
:1036E0007091850480918604909187040E94E73050
:1036F000DC01CB01B4010E9456058823C9F080E0AB
:1037000090E0A0E8BFEBEA89FB8980839183A283E4
:10371000B38384839583A683B7838091200590919A
:103720002105019790932105809320051092A5040F
:103730000E9407160E94D929F1E0F98345CF6396CC
:103740000FB6F894DEBF0FBECDBFDF91CF911F91B2
:103750000F91FF90EF90DF90CF90BF90AF909F9030
:103760008F907F906F905F904F903F902F90089533
:103770002F923F924F925F926F927F928F929F9281
:10378000AF92BF92CF92DF92EF92FF920F931F936F
:10379000CF93DF93CDB7DEB762970FB6F894DEBF55
:1037A0000FBECDBF8B0197FDA3C020906D0430905C
:1037B0006E0424E0220E311C209184043091850493
:1037C000409186045091870429833A834B835C831C
:1037D000C090A104D090A204E090A304F090A404AF
:1037E00020910D0530910E0540910F055091100567
:1037F0002D833E834F835887809005059090060562
:10380000A0900705B09008051E861D869C01990FA3
:10381000440B550B29873A874B875C87AD85BE855E
:103820002A163B060CF464C069857A858B859C85D5
:103830000E941F3129813A814B815C810E94FF2FB8
:103840000E9480322B013C01C701B6010E948032E8
:103850009B01AC01C301B2010E940E3287FD42C040
:1038600020E030E040E850E4C701B6010E94FF2F9D
:103870000E9480329B01AC01C301B2010E946B30F7
:10388000181684F14D855E85BA01550F880B990B8A
:103890000E941F312D813E814F8158850E94FF2F4C
:1038A0000E9480322B013C01C501B4010E9480328C
:1038B0009B01AC01C301B2010E940E3287FD12C010
:1038C00020E030E040E850E4C501B4010E94FF2F41
:1038D0000E9480329B01AC01C301B2010E946B3097
:1038E000181654F48D859E8501969E878D8796CFF8
:1038F00017FD59C1312C04C017FDAFC033243394D8
:10390000C0906D04D0906E0496012C5F3F4F3A83B7
:1039100029838091840490918504A0918604B091BC
:1039200087048D839E83AF83B8878090A104909095
:10393000A204A090A304B090A40420910D0530919E
:103940000E0540910F055091100529873A874B8746
:103950005C874090050550900605609007057090C3
:1039600008051A8A198AC801110FAA0BBB0B8D878B
:103970009E87AF87B88B49895A8989819A81841734
:1039800095070CF467C031105EC0A989BA89BD01E2
:10399000BB0F880B990B0E941F312D813E814F81F7
:1039A00058850E94FF2F0E9480326B017C01C50167
:1039B000B4010E9480329B01AC01C701B6010E9494
:1039C0000E3287FD40C020E030E040E850E4C50101
:1039D000B4010E94FF2F0E9480329B01AC01C701FD
:1039E000B6010E946B30181674F16D857E858F8547
:1039F00098890E941F3129853A854B855C850E94F4
:103A0000FF2F0E9480326B017C01C301B2010E9432
:103A100080329B01AC01C701B6010E940E3287FDC6
:103A200012C020E030E040E850E4C301B2010E943F
:103A3000FF2F0E9480329B01AC01C701B6010E949A
:103A40006B30181654F429893A892F5F3F4F3A8B0F
:103A5000298B91CF332009F4A6C00E94EC290E9443
:103A6000C10760910D0570910E0580910F05909131
:103A700010050E9480326B017C016091840470917A
:103A8000850480918604909187040E9480324B01C6
:103A90005C01C701B6010E94E7306B017C01C501E2
:103AA000B4010E94E730DC01CB01B6010E9456054B
:103AB000882309F45CC0209183044091090550914A
:103AC0000A0560910B0570910C0580913605909167
:103AD0003705A0913805B09139054093A104509362
:103AE000A2046093A3047093A404809305059093AB
:103AF0000605A0930705B093080521112AC08091FF
:103B00009B0490919C04A0919D04B0919E0480938D
:103B1000840490938504A0938604B09387048091D5
:103B2000890490918A04A0918B04B0918C048093B5
:103B30000D0590930E05A0930F05B093100580918D
:103B400020059091210501979093210580932005F0
:103B50000EC080918F0490919004019690939004F0
:103B600080938F04039719F481E0809366040E9488
:103B7000071662960FB6F894DEBF0FBECDBFDF9179
:103B8000CF911F910F91FF90EF90DF90CF90BF905A
:103B9000AF909F908F907F906F905F904F903F90ED
:103BA0002F900C94D92962960FB6F894DEBF0FBE01
:103BB000CDBFDF91CF911F910F91FF90EF90DF90DC
:103BC000CF90BF90AF909F908F907F906F905F90BD
:103BD0004F903F902F9008954F925F926F927F92F7
:103BE0008F929F92AF92BF92CF92DF92EF92FF920D
:103BF0000F931F93CF93DF9380E00E94C329BC01F2
:103C0000809165048111E7C0072E000C880B990B89
:103C10000E941F3120E030EC4FE754E40E947530E1
:103C20006B017C0120910105309102054091030553
:103C3000509104050E9413322091A1043091A204F6
:103C40004091A3045091A4040E94FF2F0E9480324F
:103C50000E94E7304B015C01EB0120916704309139
:103C600068044091690450916A04C701B6010E943A
:103C700013322091050530910605409107055091BA
:103C800008050E94FF2F0E9480320E94E7302B011E
:103C90003C018B01209719F0C035D10521F40E9419
:103CA000AC0AC1E001C0C0E00930110519F00C32C6
:103CB000110519F40E94AC0AC1E0B201550C880B41
:103CC000990B0E941F310E9480322B013C01B401EC
:103CD000990C880B990B0E941F310E9480324B0176
:103CE0005C01C301B2010E94E7302B013C01C50118
:103CF000B4010E94E730DC01CB01B2010E94F30560
:103D0000882391F0DF91CF911F910F91FF90EF9059
:103D1000DF90CF90BF90AF909F908F907F906F90EB
:103D20005F904F900C94AC0AC11155C020910105D1
:103D3000309102054091030550910405C701B60179
:103D40000E9413329B01AC016091A1047091A20406
:103D50008091A3049091A4040E94FF2F6093A1047A
:103D60007093A2048093A3049093A4042091670409
:103D7000309168044091690450916A04C701B6010A
:103D80000E9413329B01AC016091050570910605FC
:103D900080910705909108050E94FF2F609305050B
:103DA00070930605809307059093080560E070E026
:103DB00080E090E00E94B81B64E070E084E090E056
:103DC0000E94B81B80911105909112050196909365
:103DD000120580931105DF91CF911F910F91FF90F4
:103DE000EF90DF90CF90BF90AF909F908F907F909B
:103DF0006F905F904F9008952F923F924F925F92F5
:103E00006F927F928F929F92AF92BF92CF92DF92EA
:103E1000EF92FF920F931F93CF93DF93CDB7DEB74F
:103E200062970FB6F894DEBF0FBECDBF8B0197FD32
:103E3000A3C020906D0430906E0424E0220E311C4B
:103E40002091840430918504409186045091870428
:103E500029833A834B835C83C090A801D090A90149
:103E6000E090AA01F090AB0120910D0530910E0574
:103E700040910F05509110052D833E834F83588745
:103E80008090AC019090AD01A090AE01B090AF01D8
:103E90001E861D869C01990F440B550B29873A8776
:103EA0004B875C87AD85BE852A163B060CF464C043
:103EB00069857A858B859C850E941F3129813A818D
:103EC0004B815C810E94FF2F0E9480322B013C01BC
:103ED000C701B6010E9480329B01AC01C301B2014F
:103EE0000E940E3287FD42C020E030E040E850E4FE
:103EF000C701B6010E94FF2F0E9480329B01AC01D6
:103F0000C301B2010E946B30181684F14D855E85A5
:103F1000BA01550F880B990B0E941F312D813E81EC
:103F20004F8158850E94FF2F0E9480322B013C0157
:103F3000C501B4010E9480329B01AC01C301B201F2
:103F40000E940E3287FD12C020E030E040E850E4CD
:103F5000C501B4010E94FF2F0E9480329B01AC0179
:103F6000C301B2010E946B30181654F48D859E85F2
:103F700001969E878D8796CF17FD02C1312C04C014
:103F800017FDAFC033243394C0906D04D0906E04FD
:103F900096012C5F3F4F3A8329838091840490914E
:103FA0008504A0918604B09187048D839E83AF839E
:103FB000B8878090A8019090A901A090AA01B09024
:103FC000AB0120910D0530910E0540910F055091E8
:103FD000100529873A874B875C874090AC01509049
:103FE000AD016090AE017090AF011A8A198AC801C4
:103FF000110FAA0BBB0B8D879E87AF87B88B4989A2
:104000005A8989819A81841795070CF467C0311009
:104010005EC0A989BA89BD01BB0F880B990B0E94AC
:104020001F312D813E814F8158850E94FF2F0E94B4
:1040300080326B017C01C501B4010E9480329B017A
:10404000AC01C701B6010E940E3287FD40C020E0DE
:1040500030E040E850E4C501B4010E94FF2F0E9407
:1040600080329B01AC01C701B6010E946B3018166B
:1040700074F16D857E858F8598890E941F31298511
:104080003A854B855C850E94FF2F0E9480326B0130
:104090007C01C301B2010E9480329B01AC01C701C7
:1040A000B6010E940E3287FD12C020E030E040E8E9
:1040B00050E4C301B2010E94FF2F0E9480329B0195
:1040C000AC01C701B6010E946B30181654F429895F
:1040D0003A892F5F3F4F3A8B298B91CF332009F4D8
:1040E0004FC00E94EC290E94D80960910D05709183
:1040F0000E0580910F05909110050E94E7306B012D
:104100007C01609184047091850480918604909173
:1041100087040E94E730DC01CB01B6010E945605FE
:10412000882391F08091AA049091AB04019749F4FF
:104130000E94FF0F82E090E09093AB048093AA046A
:1041400003C081E0809395040E94071662960FB623
:10415000F894DEBF0FBECDBFDF91CF911F910F91BD
:10416000FF90EF90DF90CF90BF90AF909F908F9097
:104170007F906F905F904F903F902F900C94D92933
:1041800062960FB6F894DEBF0FBECDBFDF91CF9120
:104190001F910F91FF90EF90DF90CF90BF90AF9065
:1041A0009F908F907F906F905F904F903F902F9057
:1041B00008952F923F924F925F926F927F928F92CB
:1041C0009F92AF92BF92CF92DF92EF92FF920F93A6
:1041D0001F93CF93DF93CDB7DEB760970FB6F894F8
:1041E000DEBF0FBECDBF8C011B0197FDC2C0C090CA
:1041F0000001D0900101E0900201F090030120E065
:1042000030E040E85FEBC701B6010E946B308823C5
:1042100009F4AFC08090040190900501A0900601C0
:10422000B090070120E030E040E85FEBC501B40149
:104230000E946B30882309F49CC080916D0490919A
:104240006E049C012C5F3F4F3A8329838091840444
:1042500090918504A0918604B09187048B839C8300
:10426000AD83BE8380910D0590910E05A0910F0541
:10427000B09110058F839887A987BA87188A1F86FF
:10428000C801110FAA0BBB0B8B879C87AD87BE871C
:104290008F859889A981BA81A817B9070CF469C0DC
:1042A0006B857C858D859E850E941F312B813C818D
:1042B0004D815E810E94FF2F0E9480322B013C01C4
:1042C000C701B6010E9480329B01AC01C301B2015B
:1042D0000E940E3287FD42C020E030E040E850E40A
:1042E000C701B6010E94FF2F0E9480329B01AC01E2
:1042F000C301B2010E946B30181684F1AF85B889F2
:10430000BD01BB0F880B990B0E941F312F8138858F
:1043100049855A850E94FF2F0E9480322B013C0163
:10432000C501B4010E9480329B01AC01C301B201FE
:104330000E940E3287FD12C020E030E040E850E4D9
:10434000C501B4010E94FF2F0E9480329B01AC0185
:10435000C301B2010E946B3018163CF42F853889D6
:104360002F5F3F4F388B2F8793CF37FCC8C011E0AA
:1043700003C037FC14C110E0C0900001D0900101CF
:10438000E0900201F090030120E030E040E85FEBB4
:10439000C701B6010E946B30882309F4ADC080903C
:1043A000040190900501A0900601B090070120E063
:1043B00030E040E85FEBC501B4010E946B30882318
:1043C00009F49AC080916D0490916E049C012C5F59
:1043D0003F4F3A8329838091840490918504A09172
:1043E0008604B09187048B839C83AD83BE838091C8
:1043F0000D0590910E05A0910F05B09110058F83CA
:104400009887A987BA87188A1F86C101330CAA0B1F
:10441000BB0B8B879C87AD87BE878F859889A981C9
:10442000BA81A817B9070CF467C011115EC0AF8537
:10443000B889BD01BB0F880B990B0E941F312B81DE
:104440003C814D815E810E94FF2F0E9480322B01B2
:104450003C01C701B6010E9480329B01AC01C3013F
:10446000B2010E940E3287FD40C020E030E040E8FB
:1044700050E4C701B6010E94FF2F0E9480329B01C9
:10448000AC01C301B2010E946B30181674F16B8548
:104490007C858D859E850E941F312F8138854985B9
:1044A0005A850E94FF2F0E9480322B013C01C501DA
:1044B000B4010E9480329B01AC01C301B2010E9491
:1044C0000E3287FD12C020E030E040E850E4C50124
:1044D000B4010E94FF2F0E9480329B01AC01C301F6
:1044E000B2010E946B30181654F42F8538892F5F63
:1044F0003F4F388B2F8791CF112309F450C00E9472
:10450000EC290E94510A60910D0570910E05809171
:104510000F05909110050E94E7306B017C016091BE
:1045200084047091850480918604909187040E9490
:10453000E730DC01CB01B6010E945605882399F0D3
:1045400080918304882321F010926C0410926B04F4
:1045500081E08093830481E090E090936E048093E7
:104560006D040E94AD080E94071660960FB6F8947D
:10457000DEBF0FBECDBFDF91CF911F910F91FF9096
:10458000EF90DF90CF90BF90AF909F908F907F90F3
:104590006F905F904F903F902F900C94D929609628
:1045A0000FB6F894DEBF0FBECDBFDF91CF911F9144
:1045B0000F91FF90EF90DF90CF90BF90AF909F90C2
:1045C0008F907F906F905F904F903F902F900895C5
:1045D0004F925F926F927F928F929F92AF92BF9213
:1045E000CF92DF92EF92FF920F931F93CF93DF93BF
:1045F0002B013C0149015A01E701CA01B9010E949E
:10460000E7306B017C01C301B2010E94E730DC019D
:10461000CB01B6010E945605882321F080918304C6
:104620008823F1F1409284045092850460928604BC
:104630007092870480920D0590920E05A0920F054E
:10464000B0921005BE01C8010E941318BE01C80136
:104650000E94EC19BE01C8010E94B81B809113058D
:10466000882321F0BE01C8010E94FC1E8091AA048B
:104670009091AB040297A1F4BE01C801DF91CF91E4
:104680001F910F91FF90EF90DF90CF90BF90AF9070
:104690009F908F907F906F905F904F900C94D92057
:1046A000DF91CF911F910F91FF90EF90DF90CF900E
:1046B000BF90AF909F908F907F906F905F904F9042
:1046C00008954F925F926F927F928F929F92AF92D6
:1046D000BF92CF92DF92EF92FF920F931F93CF93EF
:1046E000DF9300D000D0CDB7DEB740908404509067
:1046F0008504609086047090870480900D059090EA
:104700000E05A0900F05B090100580E00E94C3290F
:10471000BC01990F880B990B0E941F3120E030ECEF
:104720004FE754E40E9475306B017C018091EC03EB
:10473000282F30E040E050E029833A834B835C83AC
:104740008091A6049091A704A091A804B091A90417
:10475000281739074A075B0721F48091220587371C
:10476000A9F520E030E040E151E460910D05709141
:104770000E0580910F05909110050E940E321816BB
:104780002CF58091A6049091A704A091A804B09163
:10479000A9048093EC03813029F0809122058737AA
:1047A00009F010C180911105909112050197909325
:1047B000120580931105A7019601C501B4010E945D
:1047C000FE2F9B01AC01E12CF12C9FC080912305B1
:1047D00090912405A0912505B091260529813A8163
:1047E0004B815C81281739074A075B0721F48091C8
:1047F00022058136A9F520E030E0A901609184040A
:104800007091850480918604909187040E940E32F5
:10481000181634F58091230590912405A091250563
:10482000B09126058093EC03813029F08091220518
:10483000813609F0C7C0809111059091120501974A
:104840009093120580931105A7019601C301B2014F
:104850000E94FE2FEE24EA94FE2C00E010E0AEC091
:1048600080916F0490917004A0917104B0917204D2
:1048700029813A814B815C81281739074A075B07F8
:1048800029F480912205833709F044C000916D041A
:1048900010916E046BE270E0601B710B072E000C30
:1048A000880B990B0E941F3120910D0530910E0548
:1048B00040910F05509110050E940E32181654F5C4
:1048C00080916F0490917004A0917104B091720472
:1048D0008093EC03813029F080912205833709F021
:1048E00071C0809111059091120501969093120567
:1048F000809311050C5F1F4FA7019601C501B401FC
:104900000E94FF2F9B01AC0178010FEF1FEFC30145
:10491000B20156C08091790490917A04A0917B04F1
:10492000B0917C0429813A814B815C812817390739
:104930004A075B0729F480912205843609F042C0BA
:1049400000916D0410916E046FE470E0601B710BB8
:10495000072E000C880B990B0E941F3120918404B4
:104960003091850440918604509187040E940E3254
:10497000181644F58091790490917A04A0917B04F3
:10498000B0917C048093EC03813021F0809122056A
:104990008436C1F48091110590911205019690938F
:1049A0001205809311050C5F1F4FA7019601C301EB
:1049B000B2010E94FF2FEE24EA94FE2CA50194017F
:1049C0000E94E8220F900F900F900F90DF91CF91EF
:1049D0001F910F91FF90EF90DF90CF90BF90AF901D
:1049E0009F908F907F906F905F904F9008950E945E
:1049F00007160E94EF170C947B0C0E94FF0F0E9479
:104A000096140E94F7248FE59AEE0197F1F700C003
:104A10000000F7CF8091E80080FFFCCF089581E08F
:104A20008093D70080EA8093D80082E189BD09B4E1
:104A300000FEFDCF80E98093D8001092E000109234
:104A4000F3031092F0038CE08093E20078940895D1
:104A50008091F30308959FB7F8948091F30388231E
:104A600069F083E08093E9002BE68091E80085FD02
:104A700009C082FF03C02093E800F7CF9FBF8FEFEC
:104A80009FEF08958091F1002091E80025FD03C07B
:104A90002BE62093E8009FBF90E008952FB7F8948D
:104AA0008091F303811102C080E010C083E0809305
:104AB000E9008091F200811109C09091E80092FF15
:104AC000F3CF95FDF1CF9BE69093E8002FBF0895BB
:104AD0008091F303882371F08FB7F89493E090935B
:104AE000E9002BE69091E80095FF03C02093E800D1
:104AF000F9CF8FBF08959091F303992371F09FB779
:104B0000F89424E02093E9002091F103222349F056
:104B10002091E80025FD03C09FBF8FEF08951092FC
:104B2000F1032091E400275E34E04091E80045FD68
:104B300012C09FBF9091E400291304C081E08093CC
:104B4000F103EBCF9091F303992339F39FB7F894D6
:104B50003093E900EACF8093F1008091E80085FD71
:104B600003C08AE38093E80085E08093F2039FBF4F
:104B700080E008959091F3039923D1F09FB7F894C2
:104B800024E02093E9002091E80025FD02C09FBFAA
:104B90000FC08093F1008091E80085FD03C08AE397
:104BA0008093E80085E08093F2039FBF80E0089542
:104BB0008FEF08950F931F93CF93DF93DC01CB0109
:104BC0002091F303222371F02FB7F89434E030934F
:104BD000E9003091F103332349F03091E80035FDCD
:104BE00003C02FBF8FEF43C11092F103C4E0D0E4A4
:104BF0001AE305E0009709F439C13091E400375E0B
:104C00004091E80045FD12C02FBF2091E40032130F
:104C100004C081E08093F103E5CF2091F3032223C8
:104C200009F32FB7F894C093E900EACF3091F2006E
:104C3000ED2FE31B4E2F50E08417950708F4E82F63
:104C40008E1B91094E2F50E04134510508F001C1EF
:104C5000FA01EA5AFF4F0C9446333C913093F1002D
:104C600011963C913093F10011963C913093F100F4
:104C700011963C913093F10011963C913093F100E4
:104C800011963C913093F10011963C913093F100D4
:104C900011963C913093F10011963C913093F100C4
:104CA00011963C913093F10011963C913093F100B4
:104CB00011963C913093F10011963C913093F100A4
:104CC00011963C913093F10011963C913093F10094
:104CD00011963C913093F10011963C913093F10084
:104CE00011963C913093F10011963C913093F10074
:104CF00011963C913093F10011963C913093F10064
:104D000011963C913093F10011963C913093F10053
:104D100011963C913093F10011963C913093F10043
:104D200011963C913093F10011963C913093F10033
:104D300011963C913093F10011963C913093F10023
:104D400011963C913093F10011963C913093F10013
:104D500011963C913093F10011963C913093F10003
:104D600011963C913093F10011963C913093F100F3
:104D700011963C913093F10011963C913093F100E3
:104D800011963C913093F10011963C913093F100D3
:104D900011963C913093F10011963C913093F100C3
:104DA00011963C913093F10011963C913093F100B3
:104DB00011963C913093F10011963C913093F100A3
:104DC00011963C913093F10011963C913093F10093
:104DD00011963C913093F10011963C913093F10083
:104DE00011963C913093F10011963C913093F10073
:104DF00011963C913093F10011963C913093F10063
:104E000011963C913093F10011963C913093F10052
:104E100011963C913093F10011963C913093F10042
:104E200011963C913093F10011963C913093F10032
:104E300011963C913093F10011963C913093F10022
:104E400011963C913093F10011963C913093F10012
:104E500011963C913093F10011963091E80035FFA6
:104E60001093E8000093F2032FBFC4CE80E0DF91DF
:104E7000CF911F910F9108958FB7F8949091F203FD
:104E8000992341F094E09093E9009AE39093E8002D
:104E90001092F2038FBF0895609141027091420217
:104EA00080914302909144020895809145020895B3
:104EB0008091460208958091470208958091F00301
:104EC00008959FB7F8942091F303222339F022E04C
:104ED0002093E9002091E80025FD03C09FBF8FEFDC
:104EE000089521EA2093F10020E22093F10010922E
:104EF000F1001092F1001092F1001092F10021E007
:104F00002093F1001092F1008093F1008AE38093E6
:104F1000E8009FBF80E008951F920F920FB60F9296
:104F200011248F939F938091E1001092E10083FF01
:104F300011C01092E90091E09093EB001092EC0008
:104F400092E19093ED0098E09093F0001092F303BB
:104F50001092F00382FF13C08091F303882379F04D
:104F60008091F203882359F081508093F2038111DC
:104F700006C084E08093E9008AE38093E8009F9173
:104F80008F910F900FBE0F901F9018951F920F9248
:104F90000FB60F921124FF920F931F932F933F93FD
:104FA0004F935F936F937F938F939F93AF93BF9331
:104FB000CF93DF93EF93FF931092E9008091E80085
:104FC00083FF17C1F090F1008091F1000091F10092
:104FD0009091F10010E0192BC091F1009091F10037
:104FE000D0E0D92B2091F1006091F10092EF9093E5
:104FF000E800863009F049C08EE492E048E752E0CC
:10500000FC01A591B4910A171B07D9F4FC01329653
:10501000A591B491CA17DB07A1F4FC013496459120
:105020005491FC013696849130E0362B2F3F3105A8
:1050300019F010F02FEF30E0281708F4822F3EEF20
:105040000CC0079648175907D9F6D3C0490F511D10
:10505000891B3093E8008823A9F09091E800292F5C
:105060002570D9F392FDC8C0982F813108F090E1E6
:10507000FA01292F222351F364916093F10021500A
:105080003196F8CF903149F3B7C0853049F48EEFAF
:105090008093E8000E940A2500680093E300ACC0FA
:1050A000893059F5F110A5C00093F3031092F00375
:1050B0001092F2038EEF8093E80041E08DE093E0E0
:1050C0004093E9009C012F5F3F4FFC0154915093A6
:1050D000EB00552359F0F90124912093EC009C0139
:1050E0002D5F3F4F3196E491E093ED004F5F4530E7
:1050F00011F0C901E5CF8EE177C0883051F4F0E8B6
:10510000FF1277C00E940A258091F3038093F1007B
:1051100049C0813281F481EAF8126BC00E940A25ED
:10512000E1E4F2E088E492E021912093F1008E170F
:105130009F07D1F737C08032A9F491E2F91259C024
:105140008091E80082FFFCCFE1E4F2E088E492E0A5
:105150002091F10021938E179F07D1F78BEF809359
:10516000E80020C0823241F4E1E2FE1242C0009326
:10517000F0030E940A2516C0811118C00E940A255A
:10518000F2E8FF120AC0C093E9008091EB0085FBB2
:10519000882780F91092E90001C080E08093F10037
:1051A0001092F1008EEF8093E80026C0982F9D7F2B
:1051B0009130F9F492E0F9121CC0012BD1F4CF77B1
:1051C0009FEF9C0F9430A8F49EEF9093E800C0935B
:1051D000E900833071F089E18093EB0081E090E099
:1051E00001C0880FCA95EAF78093EA001092EA009E
:1051F00003C081E28093EB00FF91EF91DF91CF91AB
:10520000BF91AF919F918F917F916F915F914F91DE
:105210003F912F911F910F91FF900F900FBE0F9014
:105220001F9018959B01AC01F89460E079E08DE344
:1052300090E00E942433DA01C9010197A109B10964
:10524000B695A795979587959093CD008093CC00C0
:1052500082E08093C80088E98093C90086E080934B
:10526000CA0010923604109237041092F403109280
:10527000F50378940895909137049F5F983208F071
:1052800090E0209136049217E1F3E92FF0E0E85C1A
:10529000FB4F80839093370488EB8093C900089577
:1052A0009091F5038091F4039817D1F39091F40352
:1052B0009F5F903408F090E0E92FF0E0EA50FC4F57
:1052C00080819093F40308958091F5039091F40305
:1052D000891708F4805C891B08951F920F920FB6FE
:1052E0000F9211248F939F93EF93FF939091370424
:1052F00080913604981304C088E98093C9000FC0D8
:10530000809136048F5F883208F080E0E82FF0E06B
:10531000E85CFB4F90819093CE0080933604FF9120
:10532000EF919F918F910F900FBE0F901F90189546
:105330001F920F920FB60F9211242F938F939F936A
:10534000EF93FF939091CE008091F5038F5F8034AF
:1053500008F080E02091F403821739F0E82FF0E0A4
:10536000EA50FC4F90838093F503FF91EF919F915A
:105370008F912F910F900FBE0F901F90189587E877
:1053800080937A000895982F9F71906490937C0089
:10539000807280937B0080917A00806480937A0091
:1053A00080917A0086FDFCCF809178009091790001
:1053B0000895CF93DF9360E080E00E94752CC0E4F5
:1053C000D5E0699181E00E941A2C87E0C833D807A4
:1053D000C1F7DF91CF910895E0E4F5E0119287E005
:1053E000E833F807D9F7089584359105A8F56033B7
:1053F000710590F59B0173E0359527957A95E1F756
:105400006770452BA1F044E5429FF001439FF00DEA
:1054100011248E0F9F1FFC01E05CFA4F81E090E0A9
:1054200001C0880F6A95EAF79081892B14C044E582
:10543000429FF001439FF00D11248E0F9F1FFC012E
:10544000E05CFA4F81E090E001C0880F6A95EAF7CE
:10545000809590818923808308952F923F924F9267
:105460005F926F927F928F929F92AF92BF92CF92F4
:10547000DF92EF92FF920F931F93CF93DF93CDB7FD
:10548000DEB72E970FB6F894DEBF0FBECDBF1C015E
:105490003B012A013A8329838417950771F57C83A0
:1054A0006B8329813A81621673069CF48B819C81FF
:1054B000281739070CF41AC1A8016B817C81C1013E
:1054C0000E94F4292B813C812F5F3F4F3C832B832B
:1054D000E8CFAB81BC8129813A81A217B3070CF4D4
:1054E00005C1A8016B817C81C1010E94F4298B81D7
:1054F0009C8101979C838B83D4CF89819A81681783
:10550000790751F53A822982241435049CF4A98143
:10551000BA814A165B060CF4E9C0A801B30189817F
:105520009A810E94F42929813A812F5F3F4F3A8363
:105530002983EACF29813A81241535050CF4D6C098
:10554000A801B30189819A810E94F429A981BA81B5
:105550001197BA83A983D8CF4215530554F4872DE8
:1055600069807A8069838A83922D832D1A01492E5E
:10557000582EB20162197309072E000C880B990B83
:105580000E941F316F83788789879A8769817A8122
:1055900066197709072E000C880B990B0E941F31A2
:1055A0004B015C012F81388549855A850E947530F1
:1055B0006B837C838D839E8320E030E0A9010E9471
:1055C0000E3287FF09C08B819C81AD81BE81B058AE
:1055D0008B839C83AD83BE83C12CD12C760120E0CC
:1055E00030E0A9016F81788589859A850E940E3205
:1055F00018160CF077C0421453040CF477C0A801BD
:10560000B301C1010E94F4292B813C814D815E814F
:10561000C701B6010E94FF2F6B017C0120E030E042
:1056200040E05FE30E940E3287FF10C020E030E0D0
:10563000A9016F81788589859A850E940E32181696
:105640000CF04CC09FEF291A390AC9CF20E030E096
:10565000A901C501B4010E940E321816CCF52981AA
:105660003A812615370514F3A801B301C1010E9440
:10567000F429A1E0B0E0BC87AB8720E030E0A901CD
:10568000C501B4010E940E32181614F01C861B8648
:1056900021E030E03E872D8720E030E0A901C50100
:1056A000B4010E946B3087FD02C01E861D868B856B
:1056B0009C85AD85BE858A1B9B0B680E791E20E0FC
:1056C00030E040E85FE3C701B6010E94FE2FA4CF9F
:1056D00089819A81681679063CF6A8CFA1E02A1A3A
:1056E00031087DCF241435040CF089CF2E960FB6E7
:1056F000F894DEBF0FBECDBFDF91CF911F910F9108
:10570000FF90EF90DF90CF90BF90AF909F908F90E1
:105710007F906F905F904F903F902F9008952F92C1
:105720003F924F925F926F927F928F929F92AF9231
:10573000BF92CF92DF92EF92FF920F931F93CF937E
:10574000DF936C014B01190185E0489F2001112472
:10575000E12CF12C80EA481A510866246394712CDC
:10576000F201EE0DFF1DE95EFC4FE49121143104BE
:1057700009F4E09500E010E0CE2FD0E05601AE0C29
:10578000BF1CA301002E02C0440F551F0A94E2F76C
:105790004C235D23002E02C0559547950A94E2F7ED
:1057A000B401600F711FC5010E94F4290F5F1F4FE4
:1057B0000830110531F78FEFE81AF80A85E0E8168E
:1057C000F10471F6DF91CF911F910F91FF90EF904F
:1057D000DF90CF90BF90AF909F908F907F906F9011
:1057E0005F904F903F902F900895CF92DF92EF926D
:1057F000FF920F931F93CF93DF937B018A0169017F
:10580000D82FC0E0F801EC0FF11D4081442349F08E
:105810009601B7018D2F90E00E948F2BDB5FCF5F49
:10582000F1CFDF91CF911F910F91FF90EF90DF901B
:10583000CF90089525B12F7D30E2839FC0011124C0
:10584000822B85B95F9887E090E070E08F989B018C
:10585000082E02C0359527950A94E2F720FF02C072
:105860002E9A01C02E988F9A019780F75F9A08951B
:10587000CF93C82F579A249A259A269A879A2C98BC
:105880005F9A2C9A61E280E00E941A2C6C2F60686B
:1058900080E00E941A2C64E080E00E941A2C63E1F0
:1058A00080E00E941A2C6CE080E00E941A2C60E2DA
:1058B00080E00E941A2C6CE080E00E941A2C60E4C8
:1058C00080E00E941A2C60E880E0CF910C941A2CA2
:1058D000CF93DF93C8EFD1E060E081E00E941A2C03
:1058E0002197D1F7DF91CF910895CF93C82F6064AE
:1058F00080E00E941A2C6C2F606880E0CF910C949D
:105900001A2CA0E1B0E0E7E8FCE20C944C337C01F7
:105910001B016A01FC0117821682838181FF44C347
:105920009E012F5F3F4F3901F7019381F10193FDF4
:10593000859193FF81911F01882309F431C385323A
:1059400039F493FD859193FF81911F01853239F4DC
:10595000B70190E00E94E83456016501E5CF10E000
:10596000512C912CFFE1F915D8F08B3279F038F4F5
:10597000803279F08332A1F4F92DF0612EC08D329E
:1059800061F0803369F4292D21602DC0392D3260FA
:10599000932E892D8460982E2AC0E92DE86015C0C9
:1059A00097FC2DC020ED280F2A3088F496FE06C003
:1059B0003AE0139F200D1124122F19C08AE0589E3F
:1059C000200D1124522EE92DE0629E2E10C08E3241
:1059D00031F496FCE5C2F92DF0649F2E08C08C3698
:1059E00021F4292D2068922E02C0883641F4F1015D
:1059F00093FD859193FF81911F018111B3CF9BEBA3
:105A0000980F933020F4992D9061805E07C09BE938
:105A1000980F933008F066C1992D9F7E96FF16E08F
:105A20009F73992E853619F49064992E08C0863696
:105A300021F4392F3068932E02C01111115097FEB6
:105A400007C01C3350F444244394410E27E00BC09C
:105A5000183038F027E017E005C027E09CE3492E16
:105A600002C0212F412C560184E0A80EB11CF60182
:105A70006081718182819381042DA3010E94F3339F
:105A80006C01F981FC87F0FF02C0F3FF06C091FCB6
:105A900006C092FE06C000E205C00DE203C00BE2A4
:105AA00001C000E08C858C7019F001115AC29BC2B4
:105AB00097FE10C04C0CFC85F4FF04C08A81813332
:105AC00009F44A94141474F528E0241578F588E054
:105AD000482E2CC096FC2AC0812F90E08C159D0585
