:100000000C946D020C948A020C948A020C948A025D
:100010000C948A020C948A020C948A020C948A0230
:100020000C948A020C948A020C94080A0C94420ADA
:100030000C948A020C948A020C948A020C948A0210
:100040000C948A020C948A020C948A020C948A0200
:100050000C94F1020C948A020C948A020C94CD0246
:100060000C948A020C94140C0C94E90B0C948A02E4
:100070000C948A020C948A020C948A020C948A02D0
:100080000C948A020C948A020C948A020C943C030D
:100090000C948A020C948A020C948A020C948A02B0
:1000A0000C948A020C948A020C948A02A909A5096C
:1000B000A1099D099909950991098D098909850960
:1000C00081097D097909750971096D096909650950
:1000D00061095D095909550951094D094909450940
:1000E00041093D093909350931092D092909250930
:1000F00021091D091909150911090D090909050920
:100100000109FD08F908F508F108ED08E908E50816
:10011000E108DD08D908D508D108CD08C908C50807
:10012000C108BD08B908B508B108AD08A9086E61D5
:100130006E00696E660000407A10F35A00A0724E9D
:1001400018090010A5D4E80000E87648170000E47C
:100150000B54020000CA9A3B000000E1F5050000C4
:1001600080969800000040420F000000A086010029
:100170000000102700000000E803000000006400F9
:10018000000000000A000000000001000000000064
:100190002C76D888DC674F0823DFC1DFAE59E1B188
:1001A000B796E5E3E453C63AE651997696E8E6C297
:1001B0008426EB898C9B62ED407C6FFCEFBC9C9F9E
:1001C00040F2BAA56FA5F490055A2AF75C936B6CC0
:1001D000F9676DC11BFCE0E40D47FEF520E6B500B4
:1001E000D0ED902E0300943577050080841E080022
:1001F00000204E0A000000C80C333333330F986ED2
:1002000012831141EF8D2114893BE65516CFFEE68E
:10021000DB18D1844B381BF77C1D901DA4BBE42454
:10022000203284725E228100C9F124ECA1E53D27D1
:1002300000010000DD0212000200009A02430003E8
:100240000000960204010309048002140203090459
:10025000680216030309045A020C0C033100320031
:1002600033003400350000001603550053004200EF
:100270002000530065007200690061006C000000FE
:10028000140359006F007500720020004E006100D9
:100290006D00650000000403090409024300020127
:1002A00000C0320904000001020201000524001010
:1002B00001052401010104240206052406000107AA
:1002C00005820310004009040100020A0000000733
:1002D00005030240000007058402400000120100EF
:1002E0000202000010C0167A04000101020301009E
:1002F00001C11201803601813600000000000000BB
:100300005F00000007000700147F147F14242A7F79
:100310002A1223130864623649552250000503004F
:1003200000001C2241000041221C0014083E081459
:1003300008083E08080050300000080808080800B7
:100340006060000020100804023E5149453E004212
:100350007F400042615149462141454B31181412FA
:100360007F1027454545393C4A4949300171090507
:10037000033649494936064949291E0036360000E8
:1003800000563600000814224100141414141400FE
:10039000412214080201510906324979413E7E1179
:1003A00011117E7F494949363E414141227F4141F9
:1003B000221C7F494949417F090909013E414949B8
:1003C0007A7F0808087F00417F41002040413F01BB
:1003D0007F081422417F404040407F020C027F7F13
:1003E0000408107F3E4141413E7F090909063E4114
:1003F00051215E7F09192946464949493101017F4A
:1004000001013F4040403F1F2040201F3F403840F7
:100410003F63140814630708700807615149454396
:10042000007F41410002040810200041417F000488
:1004300002010204404040404000010204002054F8
:100440005454787F48444438384444442038444421
:10045000487F3854545418087E0901020C525252F5
:100460003E7F0804047800447D40002040443D0065
:100470007F1028440000417F40007C041804787CF1
:100480000804047838444444387C141414080814CC
:1004900014187C7C080404084854545420043F4435
:1004A00040203C4040207C1C2040201C3C403040F0
:1004B0003C44281028440C5050503C4464544C4454
:1004C000000836410000007F00000041360800109F
:1004D0000808100878464146780011241FBECFEF67
:1004E000DAE0DEBFCDBF11E0A0E0B1E0EAE4FEE279
:1004F00002C005900D92A433B107D9F723E0A4E31D
:10050000B1E001C01D92A53FB207E1F70E947B0751
:100510000C9423170C94000085B5877F85BD85B5A5
:100520008B7F85BD85B58D7F85BD85B5816085BD9A
:10053000EEE6F0E08081816080830895E1E8F0E0FC
:100540008081877F808380818F7E808380818B7F85
:10055000808380818260808380818E7F8083EFE6CC
:10056000F0E08081816080830895E1E9F0E080819E
:10057000877F808380818F7E808380818460808379
:1005800080818D7F8083808181608083E1E7F0E0DE
:10059000808181608083089508951F920F920FB625
:1005A0000F9211242F933F938F939F938091420139
:1005B000209143013091440190E08217930714F495
:1005C0002B9A01C02B98809142018F5F809342014A
:1005D0009F918F913F912F910F900FBE0F901F9081
:1005E00018951F920F920FB60F9211248F939F931D
:1005F000AF93BF9380913E0190913F01A091400144
:10060000B09141010196A11DB11D80933E019093CF
:100610003F01A0934001B093410180913E01909130
:100620003F01A0914001B09141010B97A105B10597
:10063000D0F08091CD019091CE0101969093CE01A2
:100640008093CD018091EF019091F00101969093FC
:10065000F0018093EF0110923E0110923F01109241
:10066000400110924101BF91AF919F918F910F90E6
:100670000FBE0F901F9018951F920F920FB60F92FA
:1006800011248F939F93AF93BF9380913A019091E0
:100690003B01A0913C01B0913D010196A11DB11D0E
:1006A00080933A0190933B01A0933C01B0933D01AC
:1006B000BF91AF919F918F910F900FBE0F901F90A0
:1006C0001895CF92DF92EF92FF92CF93DF936091D4
:1006D0003A0170913B0180913C0190913D01C091A4
:1006E0009400D09195000E94941320E03FEF4FE7D3
:1006F00057E40E944B146B017C01BE0180E090E046
:100700000E9494139B01AC01C701B6010E947B12A9
:1007100020E030E040E854E40E944B1420E034E252
:1007200044EF5AE40E94EC12609336017093370153
:1007300080933801909339016091360170913701AF
:10074000809138019091390120E030E040E752E497
:100750000E94461487FD19C010923A0110923B0185
:1007600010923C0110923D0180913401909135012D
:1007700001969093350180933401109236011092C6
:100780003701109238011092390160913601709151
:10079000370180913801909139010E945E13CB019D
:1007A000DF91CF91FF90EF90DF90CF900895199B4C
:1007B00014C02FE785EB91E0215080409040E1F795
:1007C00000C000001999FECF8091B7019091B80147
:1007D00002979093B8018093B701489B14C02FE70C
:1007E00085EB91E0215080409040E1F700C000008F
:1007F0004899FECF8091B7019091B80102969093ED
:10080000B8018093B701499B14C02FE785EB91E0B5
:10081000215080409040E1F700C000004999FECF90
:100820008091F7019091F80102979093F8018093DD
:10083000F7011F9B14C02FE785EB91E0215080400A
:100840009040E1F700C000001F99FECF8091F701B2
:100850009091F80102969093F8018093F701089522
:10086000EFECF1E082E190E0918380838FE090E013
:10087000938382838DE090E09583848389E190E087
:10088000978386839187808723E230E033872287AE
:10089000958784872DE230E037872687318B208B40
:1008A0002AE030E0338B228B4CE350E0558B448BB5
:1008B000378B268B2AE330E0318F208F938F828F06
:1008C00088E490E0958F848F8EE190E0978F868FFB
:1008D00008952F923F924F925F926F927F928F92E4
:1008E0009F92AF92BF92CF92DF92EF92FF920F93BF
:1008F0001F93CF93DF93CDB7DEB72E970FB6F89443
:10090000DEBF0FBECDBFE091CD01F091CE01809151
:10091000CF019091D001E80FF91FE535F10540F0C6
:100920001092CE011092CD011092F0011092EF01C1
:100930008090EF019090F0018091D1019091D201CF
:10094000880E991E81E38816910440F01092F00100
:100950001092EF011092CE011092CD016090CD0166
:100960007090CE018091D3019091D401680E791ED0
:1009700095E56916710440F01092CE011092CD01F8
:100980001092F0011092EF012091EF013091F001EF
:100990004091CD015091CE018091D7019091D80125
:1009A000841B950B04E510E0B8010E94B8145C01AB
:1009B0008091D9019091DA019A8389834091CD0188
:1009C0005091CE018091DB019091DC01841B950B4D
:1009D000B8010E94B8149A8789878091DD019091AF
:1009E000DE019C838B838091DF019091E0019E83E7
:1009F0008D834091EF015091F0018091E101909140
:100A0000E201841B950B60E370E00E94B8149C87A0
:100A10008B878091E3019091E40198878F834091C7
:100A2000EF015091F0018091E5019091E601841B66
:100A3000950B60E370E00E94B8141C014091CD0159
:100A40005091CE018091E7019091E801840F951FAC
:100A5000B8010E94B8149E878D874090E90150909C
:100A6000EA014091CD015091CE018091EB0190912E
:100A7000EC01840F951FB8010E94B8147C01C0904E
:100A8000ED01D090EE018091D5019091D601280F13
:100A9000391F01E0A301B401CF010E94A90C2B81F1
:100AA0003C8149855A8569817A81C5010E94A90CDA
:100AB00091014F8158856B857C858D819E810E9437
:100AC000A90C9601A701B2018D859E850E94A90CF3
:100AD0002E960FB6F894DEBF0FBECDBFDF91CF913B
:100AE0001F910F91FF90EF90DF90CF90BF90AF904C
:100AF0009F908F907F906F905F904F903F902F903E
:100B0000089580E88093610081E0809361008FE325
:100B10000E94B40E0E94680C0E9430040E948C0255
:100B20000E949E020E94B502789451982198509894
:100B30002798229A239A0E948B070E943B0C0E94BE
:100B4000A4078823E1F30895DF92EF92FF920F93B9
:100B50001F93CF93DF93CDB7DEB764970FB6F894AA
:100B6000DEBF0FBECDBFD82E162F5F934F933F939E
:100B70002F938DE091E09F938F931F9284E18F9349
:100B8000CE0101967C019F938F930E946916612F7D
:100B900070E0202FA7018D2D90E00E94710E0FB6FE
:100BA000F894DEBF0FBECDBF64960FB6F894DEBFDB
:100BB0000FBECDBFDF91CF911F910F91FF90EF90AE
:100BC000DF900895DF92EF92FF920F931F93CF93E0
:100BD000DF93CDB7DEB764970FB6F894DEBF0FBED4
:100BE000CDBF082F162FD22E5F934F9380E191E057
:100BF0009F938F931F9284E18F93CE0101967C0186
:100C00009F938F930E946916612F70E02D2DA7018D
:100C1000802F90E00E94710E0FB6F894DEBF0FBED9
:100C2000CDBF64960FB6F894DEBF0FBECDBFDF9187
:100C3000CF911F910F91FF90EF90DF900895DF9279
:100C4000EF92FF920F931F93CF93DF93CDB7DEB751
:100C5000A0970FB6F894DEBF0FBECDBF082F162F9A
:100C6000D22E5F934F9383E191E09F938F931F92D6
:100C700080E28F93CE0101967C019F938F930E9417
:100C80006916612F70E02D2DA701802F90E00E9442
:100C9000710E0FB6F894DEBF0FBECDBFA0960FB693
:100CA000F894DEBF0FBECDBFDF91CF911F910F91A2
:100CB000FF90EF90DF900895CF93DF93CDB7DEB72D
:100CC0009E01215F3F4F4D855E856B857C858985C3
:100CD0009A850E94991621E049855A856F81788509
:100CE0008D819E810E94710EDF91CF9108950F93A7
:100CF000CF93DF93CDB7DEB7C055D1090FB6F894C7
:100D0000DEBF0FBECDBF01E028E030E040E550E09F
:100D100068E070E080E090E00E94A90C0E9461030E
:100D200020913401309135019F938F933F932F93FE
:100D300086E191E09F938F931F9280E58F93CE0180
:100D400001969F938F931F921F921F9283E28F931E
:100D50000E945C060FB6F894DEBF0FBECDBFC05B2D
:100D6000DF4F0FB6F894DEBF0FBECDBFDF91CF913E
:100D70000F910895FC0101900020E9F73197BF0120
:100D8000681B790B0C9456080F931F93CF93DF9336
:100D9000CDB7DEB7A0970FB6F894DEBF0FBECDBFBC
:100DA0000E94CA078823B1F10E94A70781369105E6
:100DB00061F48091B7019091B80101979093B801C7
:100DC0008093B7011F9281E60EC08436910511F51C
:100DD0008091B7019091B80101969093B8018093EA
:100DE000B7011F9284E68F9384E291E09F938F93E3
:100DF0001F9280E28F938E010F5F1F4F1F930F93FF
:100E00000E946916C8010E94BA060FB6F894DEBFA8
:100E10000FBECDBFA0960FB6F894DEBF0FBECDBFFC
:100E2000DF91CF911F910F910895CF93DF93CDB7AD
:100E3000DEB7C155D1090FB6F894DEBF0FBECDBFE6
:100E40000E94680C0E94D7030E9477060E94C40685
:100E50000E9469046091F7017091F80121E040E47B
:100E60008091B7019091B8010E940B0E81E00E9421
:100E70003F0CBC01990F880B990B0E94961320E040
:100E800030EC4FE754E40E94EC1220E030E04EE7F3
:100E900053E40E944B140E945E13709344016093CC
:100EA000430180914301909144019F938F9380E18E
:100EB00091E09F938F931F9281E58F93CE010196CE
:100EC0009F938F931F9288E18F931F928FE08F9350
:100ED0000E945C060E94550C0FB6F894DEBF0FBE50
:100EE000CDBFCF5ADF4F0FB6F894DEBF0FBECDBFD8
:100EF000DF91CF9108950E9481050E9415078FE52B
:100F00009AEE0197F1F700C00000F7CF8091E8005A
:100F100080FFFCCF089581E08093D70080EA809322
:100F2000D80082E189BD09B400FEFDCF80E980933D
:100F3000D8001092E00010924801109245018CE018
:100F40008093E200789408958091480108959FB7B6
:100F5000F89480914801882369F083E08093E90048
:100F60002BE68091E80085FD09C082FF03C0209335
:100F7000E800F7CF9FBF8FEF9FEF08958091F100BA
:100F80002091E80025FD03C02BE62093E8009FBFD9
:100F900090E008952FB7F89480914801811102C024
:100FA00080E010C083E08093E9008091F20081111D
:100FB00009C09091E80092FFF3CF95FDF1CF9BE639
:100FC0009093E8002FBF089580914801882371F025
:100FD0008FB7F89493E09093E9002BE69091E800A6
:100FE00095FF03C02093E800F9CF8FBF089590913B
:100FF0004801992371F09FB7F89424E02093E90009
:1010000020914601222349F02091E80025FD03C0EC
:101010009FBF8FEF0895109246012091E400275E54
:1010200034E04091E80045FD12C09FBF9091E4007C
:10103000291304C081E080934601EBCF90914801D1
:10104000992339F39FB7F8943093E900EACF80935E
:10105000F1008091E80085FD03C08AE38093E800F9
:1010600085E0809347019FBF80E0089590914801FB
:101070009923D1F09FB7F89424E02093E9002091C0
:10108000E80025FD02C09FBF0FC08093F100809152
:10109000E80085FD03C08AE38093E80085E0809343
:1010A00047019FBF80E008958FEF08950F931F932E
:1010B000CF93DF93DC01CB0120914801222371F013
:1010C0002FB7F89434E03093E90030914601332390
:1010D00049F03091E80035FD03C02FBF8FEF43C1C9
:1010E00010924601C4E0D0E41AE305E0009709F449
:1010F00039C13091E400375E4091E80045FD12C0EF
:101100002FBF2091E400321304C081E08093460198
:10111000E5CF20914801222309F32FB7F894C0931B
:10112000E900EACF3091F200ED2FE31B4E2F50E0A3
:101130008417950708F4E82F8E1B91094E2F50E075
:101140004134510508F001C1FA01EA5AFF4F0C94ED
:10115000EE143C913093F10011963C913093F100E4
:1011600011963C913093F10011963C913093F1002F
:1011700011963C913093F10011963C913093F1001F
:1011800011963C913093F10011963C913093F1000F
:1011900011963C913093F10011963C913093F100FF
:1011A00011963C913093F10011963C913093F100EF
:1011B00011963C913093F10011963C913093F100DF
:1011C00011963C913093F10011963C913093F100CF
:1011D00011963C913093F10011963C913093F100BF
:1011E00011963C913093F10011963C913093F100AF
:1011F00011963C913093F10011963C913093F1009F
:1012000011963C913093F10011963C913093F1008E
:1012100011963C913093F10011963C913093F1007E
:1012200011963C913093F10011963C913093F1006E
:1012300011963C913093F10011963C913093F1005E
:1012400011963C913093F10011963C913093F1004E
:1012500011963C913093F10011963C913093F1003E
:1012600011963C913093F10011963C913093F1002E
:1012700011963C913093F10011963C913093F1001E
:1012800011963C913093F10011963C913093F1000E
:1012900011963C913093F10011963C913093F100FE
:1012A00011963C913093F10011963C913093F100EE
:1012B00011963C913093F10011963C913093F100DE
:1012C00011963C913093F10011963C913093F100CE
:1012D00011963C913093F10011963C913093F100BE
:1012E00011963C913093F10011963C913093F100AE
:1012F00011963C913093F10011963C913093F1009E
:1013000011963C913093F10011963C913093F1008D
:1013100011963C913093F10011963C913093F1007D
:1013200011963C913093F10011963C913093F1006D
:1013300011963C913093F10011963C913093F1005D
:1013400011963C913093F10011963C913093F1004D
:1013500011963091E80035FF1093E80000934701A3
:101360002FBFC4CE80E0DF91CF911F910F910895E0
:101370008FB7F89490914701992341F094E09093AE
:10138000E9009AE39093E800109247018FBF089517
:101390006091060170910701809108019091090107
:1013A000089580910A01089580910B01089580911C
:1013B0000C0108958091450108959FB7F8942091FC
:1013C0004801222339F022E02093E9002091E8002F
:1013D00025FD03C09FBF8FEF089521EA2093F10000
:1013E00020E22093F1001092F1001092F10010928F
:1013F000F1001092F10021E02093F1001092F10031
:101400008093F1008AE38093E8009FBF80E0089515
:101410001F920F920FB60F9211248F939F9380917A
:10142000E1001092E10083FF11C01092E90091E009
:101430009093EB001092EC0092E19093ED0098E015
:101440009093F000109248011092450182FF13C062
:1014500080914801882379F080914701882359F0D1
:10146000815080934701811106C084E08093E90098
:101470008AE38093E8009F918F910F900FBE0F90A9
:101480001F9018951F920F920FB60F921124FF9282
:101490000F931F932F933F934F935F936F937F937C
:1014A0008F939F93AF93BF93CF93DF93EF93FF936C
:1014B0001092E9008091E80083FF17C1F090F100DD
:1014C0008091F1000091F1009091F10010E0192B52
:1014D000C091F1009091F100D0E0D92B2091F10062
:1014E0006091F10092EF9093E800863009F049C0D6
:1014F00080E392E04AE552E0FC01A591B4910A171D
:101500001B07D9F4FC013296A591B491CA17DB07E9
:10151000A1F4FC01349645915491FC0136968491D6
:1015200030E0362B2F3F310519F010F02FEF30E06F
:10153000281708F4822F3EEF0CC00796481759076A
:10154000D9F6D3C0490F511D891B3093E800882379
:10155000A9F09091E800292F2570D9F392FDC8C019
:10156000982F813108F090E1FA01292F222351F3BD
:1015700064916093F10021503196F8CF903149F396
:10158000B7C0853049F48EEF8093E8000E9486074B
:1015900000680093E300ACC0893059F5F110A5C094
:1015A0000093480110924501109247018EEF8093FD
:1015B000E80041E08FEE92E04093E9009C012F5F4C
:1015C0003F4FFC0154915093EB00552359F0F90122
:1015D00024912093EC009C012D5F3F4F3196E491C4
:1015E000E093ED004F5F453011F0C901E5CF8EE18A
:1015F00077C0883051F4F0E8FF1277C00E94860768
:10160000809148018093F10049C0813281F481EAE0
:10161000F8126BC00E948607E6E0F1E08DE091E0F1
:1016200021912093F1008E179F07D1F737C08032A8
:10163000A9F491E2F91259C08091E80082FFFCCF31
:10164000E6E0F1E08DE091E02091F10021938E172A
:101650009F07D1F78BEF8093E80020C0823241F4DE
:10166000E1E2FE1242C0009345010E94860716C0C7
:10167000811118C00E948607F2E8FF120AC0C093C9
:10168000E9008091EB0085FB882780F91092E90042
:1016900001C080E08093F1001092F1008EEF809302
:1016A000E80026C0982F9D7F9130F9F492E0F9125E
:1016B0001CC0012BD1F4CF779FEF9C0F9430A8F47E
:1016C0009EEF9093E800C093E900833071F089E1C8
:1016D0008093EB0081E090E001C0880FCA95EAF7A3
:1016E0008093EA001092EA0003C081E28093EB004D
:1016F000FF91EF91DF91CF91BF91AF919F918F912A
:101700007F916F915F914F913F912F911F910F9119
:10171000FF900F900FBE0F901F9018959B01AC018A
:10172000F89460E079E08DE390E00E94CC14DA0157
:10173000C9010197A109B109B695A7959795879514
:101740009093CD008093CC0082E08093C80088E91C
:101750008093C90086E08093CA0010928B0110929A
:101760008C011092490110924A0178940895909149
:101770008C019F5F983208F090E020918B019217C6
:10178000E1F3E92FF0E0E357FE4F808390938C0163
:1017900088EB8093C900089590914A018091490196
:1017A0009817D1F3909149019F5F903408F090E031
:1017B000E92FF0E0E55BFE4F8081909349010895A9
:1017C00080914A0190914901891708F4805C891B36
:1017D00008951F920F920FB60F9211248F939F932B
:1017E000EF93FF9390918C0180918B01981304C02B
:1017F00088E98093C9000FC080918B018F5F883288
:1018000008F080E0E82FF0E0E357FE4F90819093DE
:10181000CE0080938B01FF91EF919F918F910F905C
:101820000FBE0F901F9018951F920F920FB60F9238
:1018300011242F938F939F93EF93FF939091CE005A
:1018400080914A018F5F803408F080E02091490147
:10185000821739F0E82FF0E0E55BFE4F908380932C
:101860004A01FF91EF919F918F912F910F900FBEA1
:101870000F901F90189587E880937A000895982F0D
:101880009F71906490937C00807280937B00809124
:101890007A00806480937A0080917A0086FDFCCF84
:1018A00080917800909179000895CF93DF9360E064
:1018B00080E00E94F10ECDEFD1E0699181E00E94BD
:1018C000960E83E0C53FD807C1F7DF91CF91089509
:1018D000EDEFF1E0119283E0E53FF807D9F70895C5
:1018E00084359105A8F56033710590F59B0173E08F
:1018F000359527957A95E1F76770452BA1F044E57A
:10190000429FF001439FF00D11248E0F9F1FFC0199
:10191000E350FE4F81E090E001C0880F6A95EAF73E
:101920009081892B14C044E5429FF001439FF00D44
:1019300011248E0F9F1FFC01E350FE4F81E090E0C9
:1019400001C0880F6A95EAF780959081892380838A
:1019500008952F923F924F925F926F927F928F9253
:101960009F92AF92BF92CF92DF92EF92FF920F932E
:101970001F93CF93DF93CDB7DEB72E970FB6F894B2
:10198000DEBF0FBECDBF1C013B012A013A83298374
:101990008417950771F57C836B8329813A816216E0
:1019A00073069CF48B819C81281739070CF41AC1AB
:1019B000A8016B817C81C1010E94700C2B813C814C
:1019C0002F5F3F4F3C832B83E8CFAB81BC812981C4
:1019D0003A81A217B3070CF405C1A8016B817C8181
:1019E000C1010E94700C8B819C8101979C838B8329
:1019F000D4CF89819A816817790751F53A82298273
:101A0000241435049CF4A981BA814A165B060CF4AF
:101A1000E9C0A801B30189819A810E94700C2981D3
:101A20003A812F5F3F4F3A832983EACF29813A8158
:101A3000241535050CF4D6C0A801B30189819A811B
:101A40000E94700CA981BA811197BA83A983D8CF5B
:101A50004215530554F4872D69807A8069838A83FF
:101A6000922D832D1A01492E582EB2016219730945
:101A7000072E000C880B990B0E9496136F837887B2
:101A800089879A8769817A8166197709072E000C00
:101A9000880B990B0E9496134B015C012F813885AE
:101AA00049855A850E94EC126B837C838D839E83CB
:101AB00020E030E0A9010E94461487FF09C08B8115
:101AC0009C81AD81BE81B0588B839C83AD83BE83E6
:101AD000C12CD12C760120E030E0A9016F817885FE
:101AE00089859A850E94461418160CF077C0421416
:101AF00053040CF477C0A801B301C1010E94700C1B
:101B00002B813C814D815E81C701B6010E947B1211
:101B10006B017C0120E030E040E05FE30E9446146E
:101B200087FF10C020E030E0A9016F8178858985AA
:101B30009A850E94461418160CF04CC09FEF291A83
:101B4000390AC9CF20E030E0A901C501B4010E94E3
:101B500046141816CCF529813A812615370514F359
:101B6000A801B301C1010E94700CA1E0B0E0BC87E4
:101B7000AB8720E030E0A901C501B4010E94461402
:101B8000181614F01C861B8621E030E03E872D8756
:101B900020E030E0A901C501B4010E94E71287FDF1
:101BA00002C01E861D868B859C85AD85BE858A1BE1
:101BB0009B0B680E791E20E030E040E85FE3C70130
:101BC000B6010E947A12A4CF89819A81681679069B
:101BD0003CF6A8CFA1E02A1A31087DCF24143504A1
:101BE0000CF089CF2E960FB6F894DEBF0FBECDBF96
:101BF000DF91CF911F910F91FF90EF90DF90CF90E9
:101C0000BF90AF909F908F907F906F905F904F901C
:101C10003F902F9008952F923F924F925F926F9234
:101C20007F928F929F92AF92BF92CF92DF92EF926C
:101C3000FF920F931F93CF93DF936C014B01190118
:101C400085E0489F20011124E12CF12C80EA481AFC
:101C5000510866246394712CF201EE0DFF1DE750CC
:101C6000FD4FE4912114310409F4E09500E010E007
:101C7000CE2FD0E05601AE0CBF1CA301002E02C037
:101C8000440F551F0A94E2F74C235D23002E02C037
:101C9000559547950A94E2F7B401600F711FC5018D
:101CA0000E94700C0F5F1F4F0830110531F78FEF46
:101CB000E81AF80A85E0E816F10471F6DF91CF9191
:101CC0001F910F91FF90EF90DF90CF90BF90AF905A
:101CD0009F908F907F906F905F904F903F902F904C
:101CE0000895CF92DF92EF92FF920F931F93CF93BD
:101CF000DF937B018A016901D82FC0E0F801EC0F66
:101D0000F11D4081442349F09601B7018D2F90E0E9
:101D10000E940B0EDB5FCF5FF1CFDF91CF911F9160
:101D20000F91FF90EF90DF90CF90089525B12F7D18
:101D300030E2839FC0011124822B85B95F9887E030
:101D400090E070E08F989B01082E02C03595279592
:101D50000A94E2F720FF02C02E9A01C02E988F9AB3
:101D6000019780F75F9A0895CF93C82F579A249AC6
:101D7000259A269A879A2C985F9A2C9A61E280E09D
:101D80000E94960E6C2F606880E00E94960E64E0C0
:101D900080E00E94960E63E180E00E94960E6CE067
:101DA00080E00E94960E60E280E00E94960E6CE059
:101DB00080E00E94960E60E480E00E94960E60E84B
:101DC00080E0CF910C94960ECF93DF93C8EFD1E0D3
:101DD00060E081E00E94960E2197D1F7DF91CF91CC
:101DE0000895CF93C82F606480E00E94960E6C2FF8
:101DF000606880E0CF910C94960EA0E1B0E0E3E043
:101E0000FFE00C94F4147C011B016A01FC011782B1
:101E10001682838181FF44C39E012F5F3F4F3901AA
:101E2000F7019381F10193FD859193FF81911F014A
:101E3000882309F431C3853239F493FD859193FFEA
:101E400081911F01853239F4B70190E00E942D166F
:101E500056016501E5CF10E0512C912CFFE1F915F9
:101E6000D8F08B3279F038F4803279F08332A1F4F3
:101E7000F92DF0612EC08D3261F0803369F4292D87
:101E800021602DC0392D3260932E892D8460982ECB
:101E90002AC0E92DE86015C097FC2DC020ED280F61
:101EA0002A3088F496FE06C03AE0139F200D1124D4
:101EB000122F19C08AE0589E200D1124522EE92DB0
:101EC000E0629E2E10C08E3231F496FCE5C2F92DF0
:101ED000F0649F2E08C08C3621F4292D2068922EA4
:101EE00002C0883641F4F10193FD859193FF819101
:101EF0001F018111B3CF9BEB980F933020F4992DE4
:101F00009061805E07C09BE9980F933008F066C12E
:101F1000992D9F7E96FF16E09F73992E853619F4B2
:101F20009064992E08C0863621F4392F3068932E9C
:101F300002C01111115097FE07C01C3350F4442405
:101F40004394410E27E00BC0183038F027E017E02B
:101F500005C027E09CE3492E02C0212F412C5601E9
:101F600084E0A80EB11CF6016081718182819381A9
:101F7000042DA3010E943F156C01F981FC87F0FF3D
:101F800002C0F3FF06C091FC06C092FE06C000E24C
:101F900005C00DE203C00BE201C000E08C858C702F
:101FA00019F001115AC29BC297FE10C04C0CFC855F
:101FB000F4FF04C08A81813309F44A94141474F53F
:101FC00028E0241578F588E0482E2CC096FC2AC01D
:101FD000812F90E08C159D059CF03CEFC3163FEFE0
:101FE000D30674F0892D8068982E0AC0E2E0F0E0F4
:101FF000EC0FFD1FE10FF11D8081803319F41150AA
:102000001111F4CF97FE0EC044244394410E812F4A
:1020100090E0C816D9062CF41C1904C0442443943B
:1020200001C010E097FE06C01C141D0434F4C60164
:10203000019605C085E090E002C081E090E00111CA
:102040000196112331F0212F30E02F5F3F4F820F97
:10205000931F252D30E08217930714F4581A01C0FE
:10206000512C892D897049F4552039F0B70180E24F
:1020700090E00E942D165A94F7CF002329F0B70163
:10208000802F90E00E942D1693FC09C0552039F056
:10209000B70180E390E00E942D165A94F7CF97FE87
:1020A0004CC04601D7FE02C0812C912CC601881974
:1020B0009909F301E80FF91FFE87ED8796012419AE
:1020C0003109388B2F87012F10E0119501951109E7
:1020D0003FEF8316930629F4B7018EE290E00E9449
:1020E0002D16C814D9044CF08F8598898815990548
:1020F00024F4ED85FE85818101C080E3F1E08F1A33
:1021000091082D853E852F5F3F4F3E872D87801696
:1021100091062CF0B70190E00E942D16D9CFC8147B
:10212000D90441F49A81963320F4953319F43C850F
:1021300034FF81E3B70190E04EC08A81813319F00A
:102140009C859F7E9C87B70190E00E942D161111FF
:1021500005C094FC18C085E690E017C0B7018EE278
:1021600090E00E942D161E5F82E001E0080FF3014F
:10217000E80FF11D8081B70190E00E942D16802F9D
:102180000113F3CFE6CF85E490E0B7010E942D164E
:10219000D7FC06C0C114D10441F4EC85E4FF05C0AE
:1021A000D194C194D1088DE201C08BE2B70190E0D7
:1021B0000E942D1680E32AE0C216D1042CF08F5F16
:1021C000FAE0CF1AD108F7CFB70190E00E942D16A0
:1021D000B701C601C0960E942D1654C1833631F056
:1021E000833779F0833509F056C020C0560132E0BC
:1021F000A30EB11CF6018081898301E010E0630128
:1022000012C05601F2E0AF0EB11CF601C080D180C1
:1022100096FE03C0612F70E002C06FEF7FEFC60132
:102220000E9422168C01F92DFF7714C0560122E07E
:10223000A20EB11CF601C080D18096FE03C0612FB2
:1022400070E002C06FEF7FEFC6010E9417168C018D
:10225000F92DF0689F2EF3FD1AC0852D90E0081728
:102260001907A8F4B70180E290E00E942D165A9455
:10227000F4CFF60197FC859197FE81916F01B7012C
:1022800090E00E942D1651105A9401501109011529
:10229000110579F7F7C0843611F0893661F55601DA
:1022A00097FE09C024E0A20EB11CF6016081718185
:1022B000828193810AC0F2E0AF0EB11CF601608109
:1022C0007181072E000C880B990BF92DFF769F2E3C
:1022D00097FF09C090958095709561957F4F8F4FBE
:1022E0009F4FF0689F2E2AE030E0A3010E94C516A0
:1022F000C82EC6183FC0092D853721F40F7E2AE06D
:1023000030E01DC0097F8F3691F018F4883559F000
:10231000C3C0803719F0883711F0BEC0006104FFD8
:1023200009C0046007C094FE08C0066006C028E02B
:1023300030E005C020E130E002C020E132E056018B
:1023400007FF09C084E0A80EB11CF601608171810D
:102350008281938108C0F2E0AF0EB11CF60160816A
:10236000718180E090E0A3010E94C516C82EC618B6
:102370000F77902E96FE0BC0092D0E7FC11650F4DC
:1023800094FE0AC092FC08C0092D0E7E05C0DC2C0C
:10239000092D03C0DC2C01C0D12E04FF0DC0FE01AD
:1023A000EC0DF11D8081803311F4097E09C002FF1C
:1023B00006C0D394D39404C0802F867809F0D394B8
:1023C00003FD11C000FF06C01C2DD51480F4150DAF
:1023D0001D190DC0D51458F4B70180E290E00E9499
:1023E0002D16D394F7CFD51410F45D1801C0512CDD
:1023F00004FF10C0B70180E390E00E942D1602FF99
:1024000017C001FD03C088E790E002C088E590E0B6
:10241000B7010CC0802F867859F001FF02C08BE213
:1024200001C080E207FD8DE2B70190E00E942D1609
:10243000C11638F4B70180E390E00E942D161150C8
:10244000F7CFCA94F301EC0DF11D8081B70190E044
:102450000E942D16C110F5CF15C0F4E0F51560F5FA
:1024600084E0581A93FE1FC0011127C02C8523FF5A
:102470002AC00EE211E0392D3071932EF8018491BB
:10248000811124C0552009F4E4CCB70180E290E02A
:102490000E942D165A94F6CFF7018681978126C0A7
:1024A0008FEF9FEF23C0B70180E290E00E942D16CE
:1024B0005A945110F8CFD8CF512CB701802F90E00B
:1024C0000E942D16D3CF02E311E0D5CF9110805298
:1024D000B70190E00E942D160F5F1F4FCFCF23E072
:1024E000251510F483E0BDCF512CC0CF6096E2E1FA
:1024F0000C9410155058BB27AA270E9492120C94D6
:102500000C140E94FE1338F00E94051420F039F4D8
:102510009F3F19F426F40C94FB130EF4E095E7FBAF
:102520000C94F513E92F0E941D1458F3BA17620793
:1025300073078407950720F079F4A6F50C943F14EF
:102540000EF4E0950B2EBA2FA02D0B01B9019001CE
:102550000C01CA01A0011124FF27591B99F0593F12
:1025600050F4503E68F11A16F040A22F232F342F5A
:102570004427585FF3CF469537952795A795F040A8
:102580005395C9F77EF41F16BA0B620B730B840BBD
:10259000BAF09150A1F0FF0FBB1F661F771F881F75
:1025A000C2F70EC0BA0F621F731F841F48F48795CD
:1025B00077956795B795F7959E3F08F0B0CF9395BF
:1025C000880F08F09927EE0F9795879508950E9438
:1025D000D11308F481E008950E9400130C940C14A8
:1025E0000E94051458F00E94FE1340F029F45F3F4A
:1025F00029F00C94F51351110C9440140C94FB1316
:102600000E941D1468F39923B1F3552391F3951B90
:10261000550BBB27AA2762177307840738F09F5F03
:102620005F4F220F331F441FAA1FA9F335D00E2E70
:102630003AF0E0E832D091505040E695001CCAF7DD
:102640002BD0FE2F29D0660F771F881FBB1F2617A0
:1026500037074807AB07B0E809F0BB0B802DBF0177
:10266000FF2793585F4F3AF09E3F510578F00C9446
:10267000F5130C9440145F3FE4F3983ED4F3869531
:1026800077956795B795F7959F5FC9F7880F911D67
:102690009695879597F90895E1E0660F771F881F53
:1026A000BB1F621773078407BA0720F0621B730B06
:1026B000840BBA0BEE1F88F7E09508950E9465130E
:1026C0006894B1110C94401408950E94251488F068
:1026D0009F5798F0B92F9927B751B0F0E1F0660FE6
:1026E000771F881F991F1AF0BA95C9F714C0B13027
:1026F00091F00E943F14B1E008950C943F14672FAD
:10270000782F8827B85F39F0B93FCCF38695779555
:102710006795B395D9F73EF490958095709561953E
:102720007F4F8F4F9F4F0895E89409C097FB3EF469
:1027300090958095709561957F4F8F4F9F4F99230E
:10274000A9F0F92F96E9BB279395F695879577958C
:102750006795B795F111F8CFFAF4BB0F11F460FF4C
:102760001BC06F5F7F4F8F4F9F4F16C0882311F0A4
:1027700096E911C0772321F09EE8872F762F05C0B8
:10278000662371F096E8862F70E060E02AF09A9553
:10279000660F771F881FDAF7880F9695879597F948
:1027A0000895990F0008550FAA0BE0E8FEEF1616E2
:1027B0001706E807F907C0F012161306E407F50735
:1027C00098F0621B730B840B950B39F40A2661F0A9
:1027D000232B242B252B21F408950A2609F4A1404C
:1027E000A6958FEF811D811D089597F99F6780E859
:1027F00070E060E008959FEF80EC089500240A9453
:102800001616170618060906089500240A941216CB
:102810001306140605060895092E0394000C11F4FE
:10282000882352F0BB0F40F4BF2B11F460FF04C0AB
:102830006F5F7F4F8F4F9F4F089557FD9058440F04
:10284000551F59F05F3F71F04795880F97FB991F0F
:1028500061F09F3F79F087950895121613061406CC
:10286000551FF2CF4695F1DF08C016161706180659
:10287000991FF1CF86957105610508940895E89434
:10288000BB2766277727CB0197F908950E94D113BC
:1028900008F48FEF08950E945E140C940C140E94AB
:1028A000FE1338F00E94051420F0952311F00C94CB
:1028B000F5130C94FB1311240C9440140E941D1466
:1028C00070F3959FC1F3950F50E0551F629FF00183
:1028D000729FBB27F00DB11D639FAA27F00DB11D9C
:1028E000AA1F649F6627B00DA11D661F829F222725
:1028F000B00DA11D621F739FB00DA11D621F839FAC
:10290000A00D611D221F749F3327A00D611D231F81
:10291000849F600D211D822F762F6A2F11249F57CF
:1029200050409AF0F1F088234AF0EE0FFF1FBB1FD2
:10293000661F771F881F91505040A9F79E3F510591
:1029400080F00C94F5130C9440145F3FE4F3983E30
:10295000D4F3869577956795B795F795E7959F5F3B
:10296000C1F7FE2B880F911D9695879597F90895CD
:1029700097FB072E16F4009407D077FD09D00E942C
:102980002B1507FC05D03EF4909581959F4F089537
:10299000709561957F4F0895A1E21A2EAA1BBB1B6B
:1029A000FD010DC0AA1FBB1FEE1FFF1FA217B3071B
:1029B000E407F50720F0A21BB30BE40BF50B661F31
:1029C000771F881F991F1A9469F7609570958095F5
:1029D00090959B01AC01BD01CF010895EE0FFF1F43
:1029E0000590F491E02D09942F923F924F925F92BF
:1029F0006F927F928F929F92AF92BF92CF92DF920F
:102A0000EF92FF920F931F93CF93DF93CDB7DEB773
:102A1000CA1BDB0B0FB6F894DEBF0FBECDBF099407
:102A20002A88398848885F846E847D848C849B845E
:102A3000AA84B984C884DF80EE80FD800C811B816C
:102A4000AA81B981CE0FD11D0FB6F894DEBF0FBE9B
:102A5000CDBFED010895AA1BBB1B51E107C0AA1F02
:102A6000BB1FA617B70710F0A61BB70B881F991F2F
:102A70005A95A9F780959095BC01CD01089528300D
:102A800008F027E03327DA01990F311D87FD9160A7
:102A900000966105710539F432602E5F3D9330E395
:102AA0002A95E1F708959F3F30F080387105610560
:102AB00009F03C5F3C5F3D93913008F08068911DC8
:102AC000DF93CF931F930F93FF92EF92192F987F6D
:102AD0009695E92F96959695E90FFF27E057FE4FBB
:102AE00099273327EE24FF24A701E70105900894D6
:102AF000079428F4360FE71EF81E491F511D660F74
:102B0000771F881F991F0694A1F70590079428F452
:102B1000E70EF81E491F561FC11D770F881F991F0A
:102B2000661F0694A1F70590079428F4F80E491F34
:102B3000561FC71FD11D880F991F661F771F069448
:102B4000A1F70590079420F4490F561FC71FD81FFF
:102B5000990F661F771F881F0694A9F78491109517
:102B6000177041F0D695C79557954795F794E79418
:102B70001A95C1F7E6E3F1E0689415901591359147
:102B80006591959105907FE27395E118F10A430BE9
:102B9000560BC90BD009C0F7E10CF11E431F561F9D
:102BA000C91FD01D7EF4703311F48A95E6CFE894E6
:102BB000015030F0080F0AF40027021708F4202F04
:102BC0002395022F7A3328F079E37D932A95E9F74C
:102BD00010C07D932A9589F6069497956795379549
:102BE00017951794E118F10A430B560BC90BD0093E
:102BF00098F023957E9173957A3308F070E37C9377
:102C00002013B8F77E9170617D9330F0839571E366
:102C10007D9370E32A95E1F71124EF90FF900F91D7
:102C20001F91CF91DF91992787FD90950895FC0121
:102C30000590615070400110D8F7809590958E0FE7
:102C40009F1F0895FC016150704001900110D8F75A
:102C5000809590958E0F9F1F08950F931F93CF938C
:102C6000DF93FB01238121FD03C08FEF9FEF2CC079
:102C700022FF16C0468157812481358142175307B0
:102C800044F4A081B1819D012F5F3F4F31832083A8
:102C90008C93268137812F5F3F4F3783268314C063
:102CA0008B01EC01FB010084F185E02D0995892B56
:102CB000E1F6D80116968D919C911797019617967B
:102CC0009C938E931697CE01DF91CF911F910F9118
:102CD0000895AEE0B0E0EFE6F6E10C9402150D8940
:102CE0001E898F89988D26E02C831A83098397FF8C
:102CF00002C080E090E801979E838D83AE01455E1F
:102D00005F4F698D7A8DCE0101960E94FD0E4D8137
:102D10005E8157FD0AC02F813885421753070CF496
:102D20009A01F801E20FF31F10822E96E4E00C9452
:102D30001E15AEE0B0E0EFE9F6E10C9402158C014F
:102D4000FA0186E08C831A83098377FF02C060E072
:102D500070E8CB0101979E838D83A901BF01CE014D
:102D600001960E94FD0E4D815E8157FD0AC02F81A4
:102D70003885421753070CF49A01F801E20FF31F4C
:102D800010822E96E4E00C941E15FA01AA27283032
:102D900051F1203181F1E8946F936E7F6E5F7F4F28
:102DA0008F4F9F4FAF4FB1E03ED0B4E03CD0670FA4
:102DB000781F891F9A1FA11D680F791F8A1F911DF7
:102DC000A11D6A0F711D811D911DA11D20D009F447
:102DD00068943F912AE0269F11243019305D319389
:102DE000DEF6CF010895462F4770405D4193B3E072
:102DF0000FD0C9F7F6CF462F4F70405D4A3318F019
:102E0000495D31FD4052419302D0A9F7EACFB4E0C9
:102E1000A6959795879577956795BA95C9F7009781
:102E20006105710508959B01AC010A2E0694579522
:102E3000479537952795BA95C9F7620F731F841F79
:0A2E4000951FA01D0895F894FFCF20
:102E4A000C000A00050000E10000000008256600E9
:102E5A0025640025750020543A20252E32643A252F
:102E6A002E3264007265636569766564202725637E
:042E7A00270D0A0016
:00000001FF
